:100000000C9434000C9451000C9451000C94510049
:100010000C9451000C9451000C9451000C9451001C
:100020000C9451000C9451000C9451000C9451000C
:100030000C9451000C9451000C9451000C945100FC
:100040000C9451000C9451000C9451000C945100EC
:100050000C9451000C9451000C9451000C945100DC
:100060000C9451000C94510011241FBECFEFD8E026
:10007000DEBFCDBF12E0A0E0B1E0E6E7F1E202C0F2
:1000800005900D92A030B107D9F712E0A0E0B2E0E0
:1000900001C01D92A536B107E1F70E947C020C94C5
:1000A000B9100C9400008AB188618AB98BB18BB900
:1000B000569A5E98089584B18C6384B9529A399A9D
:1000C00081E58CBD08952A988EBD0DB407FEFDCF45
:1000D0002A9A08952A9898E0882314F42B9A01C04C
:1000E0002B98880F2D9800002D9A9150A9F72A9AE5
:1000F00008955A980E94630008955A9A0E946300D6
:100100000895CF92DF92EF92FF920F931F93CF93B8
:10011000DF93F82EE92EC62FD72F142F052FC22ECE
:10012000D32E8AE20E9479008E2D0E947D008F2DB1
:100130000E947D00802F0E947D00812F0E947D0003
:100140008BE20E9479008D2F0E947D008C2F0E94EF
:100150007D008D2D0E947D008C2D0E947D008CE203
:100160000E947900DF91CF911F910F91FF90EF9046
:10017000DF90CF9008950E945B0041988FEF91EE41
:10018000A4E081509040A040E1F700C00000419AF7
:100190008BEC0E94790089E30E947D008CE20E9432
:1001A0007D0080E00E947D0084E30E947D0082E06B
:1001B0000E947D008FEC0E94790080E00E947D000B
:1001C00081EC0E947D0080E30E947D0088EE0E9409
:1001D000790085E80E947D0080E00E947D0088E72C
:1001E0000E947D008AEE0E94790080E00E947D00DE
:1001F00080E00E947D008DEE0E94790084E60E94DE
:100200007D0083E00E947D0082E10E947D0081E804
:100210000E947D0087EF0E94790080E20E947D00AD
:1002200080EC0E94790089E00E947D0081EC0E94B0
:10023000790080E10E947D0085EC0E9479008EE3C8
:100240000E947D0088E20E947D0087EC0E94790078
:1002500086E80E947D0086E30E94790088E40E947F
:100260007D008AE30E94790085E50E947D0081EB94
:100270000E94790080E00E947D0088E10E947D005C
:1002800086EB0E94790088E00E947D0082E80E944F
:100290007D0087E20E947D0081E10E9479008FEF5E
:1002A0009BEDA5E081509040A040E1F700C0000028
:1002B00089E20E9479008CE20E9479000895CF9231
:1002C000DF92EF92FF921F93CF93DF93182F80E07E
:1002D00090E060E070E040EF50E020E431E00E9408
:1002E00081000F2EF0E4EF2EF1E0FF2EF02D0F2E07
:1002F000F0EFCF2EDD24F02D0BC0812F0E947D006A
:100300002197D9F70894E108F108E114F10411F0FC
:10031000E601F3CFDF91CF911F91FF90EF90DF9037
:10032000CF9008950E94BB0008958FEF0E945F0157
:1003300080EF0E945F0180EE0E945F0185E00E94D5
:100340005F018FE10E945F0180E00E945F010895DC
:10035000CF93DF93E0E0F2E0C2E0A7E0B0E061E03D
:1003600070E0DFE01FC05C98AB01022E02C0440FBA
:10037000551F0A94E2F7808190E08423952300972B
:1003800011F05B9801C05B9A5C9A2150304059F79C
:100390008D2F5C985B985C9A8150D9F7C15031964B
:1003A000CC2311F09D01DFCF8FEC97E00197F1F79F
:1003B00000C00000DF91CF9108958093000208955E
:1003C000809300020E94A80108954F925F926F925D
:1003D0007F928F929F92AF92BF92EF920F931F9353
:1003E0002A013B0148015901809300020E94A801A3
:1003F00081E0E81611F40E947C0D81149104A1049F
:10040000B104E9F423C00000000000000000000077
:1004100000000000000000000000000000000000DC
:100420000000000000002150304069F70196A11D36
:10043000B11D88159905AA05BB0531F407C080E0F8
:1004400090E0DC014BE153E09A01DDCF1092000215
:100450000E94A80184149504A604B70408F02BC0D8
:10046000B301A201481959096A097B09E9F423C0BB
:10047000000000000000000000000000000000007C
:10048000000000000000000000000000000000006C
:100490002150304069F70196A11DB11D84179507C1
:1004A000A607B70731F407C080E090E0DC01EBE17C
:1004B000F3E09F01DDCF1F910F91EF90BF90AF90C0
:1004C0009F908F907F906F905F904F900895EF92E4
:1004D0000F931F93CF93CE2D0E94E50185E090E00E
:1004E00041E050E060E070E02C2F0E94100FCF91AF
:1004F0001F910F91EF9008958FEF93EDA0E381503E
:100500009040A040E1F700C000000E9492010E94CC
:100510009501FDCFEF920F931F93CF93C82F86E0E5
:1005200090E04FEF5FEF6FEF70E021E00E94550E1B
:100530008C2F44E351E060E070E00AEF10E020E02F
:1005400030E0EE24E3940E94E50186E090E04FEA7B
:100550005FEA6FEA70E021E00E94550E8C2F49E7B8
:1005600051E060E070E00AEF10E020E030E00E942F
:10057000E50186E090E04FE55FE56FE570E021E0A2
:100580000E94550E86E090E04FE55FE56FE570E074
:1005900025E00E94550E8C2F47E851E060E070E0A6
:1005A0000AEF10E020E030E00E94E50186E090E0F4
:1005B0004FE05FE06FE070E021E00E94550E8C2F6D
:1005C00040E351E060E070E00AEF10E020E030E04E
:1005D0000E94E50186E090E04FEB5EEB6EEB7FEF73
:1005E00021E00E94550E8C2F41E253E060E070E064
:1005F0000AEF10E020E030E00E94E50186E090E0A4
:100600004FE65EE66EE67FEF25E00E94550E8C2FEA
:1006100046E251E060E070E00AEF10E020E030E0F8
:100620000E94E50186E090E04FE15EE16EE17FEF40
:1006300025E00E94550E86E090E04FE15EE16EE11C
:100640007FEF21E00E94550E8C2F41E751E060E0E2
:1006500070E00AEF10E020E030E00E94E50186E063
:1006600090E04FEC5DEC6DEC7EEF25E00E94550EC6
:100670008C2F4FE851E060E070E00AEF10E020E0DE
:1006800030E00E94E50186E090E04FE75DE76DE72E
:100690007EEF25E00E94550E8C2F42E051E060E095
:1006A00070E00AEF10E020E030E00E94E50186E013
:1006B00090E040E050E0BA0122E00E94550E8C2FFD
:1006C00045E754E060E070E00AEF10E020E030E041
:1006D0000E94E501CF911F910F91EF900895EF9245
:1006E0000F931F93CF93C82F43EA51E060E070E06F
:1006F0000AEF10E020E030E0EE24E3940E94E501F0
:100700008C2F4CE851E060E070E00AEF10E020E050
:1007100030E00E94E5018C2F49E151E060E070E09B
:100720000AEF10E020E030E00E94E5018C2F4CE160
:1007300053E060E070E00AEF10E020E030E00E945B
:10074000E5018C2F44E151E060E070E00AEF10E039
:1007500020E030E00E94E5018C2F45EB51E060E0A5
:1007600070E00AEF10E020E030E00E94E5018C2FFD
:1007700045E751E060E070E00AEF10E020E030E093
:100780000E94E5018C2F4BE251E060E070E00AEF3F
:1007900010E020E030E00E94E5018C2F4EE154E0B3
:1007A00060E070E00AEF10E020E030E00E94E50138
:1007B0008C2F43EA51E060E070E00AEF10E020E0A7
:1007C00030E00E94E5018C2F42E851E060E070E0EB
:1007D0000AEF10E020E030E00E94E5018C2F44E3B6
:1007E00051E060E070E00AEF10E020E030E00E94AD
:1007F000E5018C2F4EE053E060E070E00AEF10E07E
:1008000020E030E00E94E5018C2F44E351E060E0FD
:1008100070E00AEF10E020E030E00E94E5018C2F4C
:1008200049E951E060E070E00AEF10E020E030E0DC
:100830000E94E5018C2F4EE751E060E070E00AEF86
:1008400010E020E030E00E94E5018C2F46E555E005
:1008500060E070E00AEF10E020E030E00E94E50187
:10086000CF911F910F91EF900895EF920F931F93E7
:10087000CF93C82F82E090E04FEF5FE56FEB70E021
:1008800021E00E94550E83E090E04FEF5FE56FEBB3
:1008900070E021E00E94550E8C2F47E851E060E0A7
:1008A00070E00AEF10E020E030E0EE24E3940E94D4
:1008B000E50182E090E04FEF5FE56FEB70E025E04F
:1008C0000E94550E83E090E04FEF5FE56FEB70E024
:1008D00025E00E94550E8C2F4CE851E060E070E05E
:1008E0000AEF10E020E030E00E94E50182E090E0B5
:1008F00040E050E0BA0121E00E94550E83E090E014
:1009000040E050E0BA0121E00E94550E81E090E005
:100910004FED50ED68EE70E025E00E94550E84E04A
:1009200090E04FED50ED68EE70E025E00E94550E2E
:100930008C2F42E251E060E070E00AEF10E020E02E
:1009400030E00E94E50186E090E040E050E0BA012E
:1009500022E00E94550E8C2F41E253E060E070E0EF
:100960000AEF10E020E030E00E94E50182E090E034
:100970004FEF5FE56FEB70E021E00E94550E83E0E2
:1009800090E04FEF5FE56FEB70E021E00E94550EC5
:100990008C2F44E551E060E070E00AEF10E020E0C9
:1009A00030E00E94E50182E090E04FEF5FE56FEB01
:1009B00070E025E00E94550E83E090E04FEF5FE588
:1009C0006FEB70E025E00E94550E8C2F45E751E05B
:1009D00060E070E00AEF10E020E030E00E94E50106
:1009E00082E090E040E050E0BA0121E00E94550E24
:1009F00083E090E040E050E0BA0121E00E94550E13
:100A000081E090E04FED50ED68EE70E025E00E944F
:100A1000550E84E090E04FED50ED68EE70E025E07B
:100A20000E94550E8C2F45E751E060E070E00AEF20
:100A300010E020E030E00E94E50181E090E04FED21
:100A400050ED68EE70E021E00E94550E84E090E0E9
:100A50004FED50ED68EE70E021E00E94550E8C2FB6
:100A60004BE251E060E070E00AEF10E020E030E09F
:100A70000E94E50186E090E040E050E0BA0122E00B
:100A80000E94550E8C2F4CE654E060E070E00AEFB7
:100A900010E020E030E00E94E50182E090E04FEFBE
:100AA0005FE56FEB70E021E00E94550E83E090E07F
:100AB0004FEF5FE56FEB70E021E00E94550E8C2F49
:100AC00042E851E060E070E00AEF10E020E030E042
:100AD0000E94E50182E090E04FEF5FE56FEB70E090
:100AE00025E00E94550E83E090E04FEF5FE56FEB4D
:100AF00070E025E00E94550E8C2F47E851E060E041
:100B000070E00AEF10E020E030E00E94E50182E0B2
:100B100090E040E050E0BA0121E00E94550E83E0F1
:100B200090E040E050E0BA0121E00E94550E81E0E3
:100B300090E04FED50ED68EE70E025E00E94550E1C
:100B400084E090E04FED50ED68EE70E025E00E940B
:100B5000550E8C2F4DE151E060E070E00AEF10E09F
:100B600020E030E00E94E50186E090E040E050E0C7
:100B7000BA0122E00E94550E8C2F47E153E060E05D
:100B800070E00AEF10E020E030E00E94E50182E032
:100B900090E04FEF5FE56FEB70E021E00E94550EB3
:100BA00083E090E04FEF5FE56FEB70E021E00E94A3
:100BB000550E8C2F44E351E060E070E00AEF10E046
:100BC00020E030E00E94E50181E090E04FEF5FE53A
:100BD0006FEB70E021E00E94550E8C2F4CE851E045
:100BE00060E070E00AEF10E020E030E00E94E501F4
:100BF00084E090E04FEF5FE56FEB70E021E00E9452
:100C0000550E8C2F45E951E060E070E00AEF10E0EE
:100C100020E030E00E94E50186E090E04FED50EDED
:100C200068EE70E022E00E94550E8C2F4BE555E0F7
:100C300060E070E00AEF10E020E030E00E94E501A3
:100C400086E090E040E050E0BA0122E00E94550EBC
:100C50008C2F45EB51E060E070E00AEF10E020E0FF
:100C600030E00E94E50182E090E04FEF5FE56FEB3E
:100C700070E021E00E94550E83E090E04FEF5FE5C9
:100C80006FEB70E021E00E94550E8C2F4DE251E099
:100C900060E070E00AEF10E020E030E00E94E50143
:100CA00081E090E04FEF5FE56FEB70E021E00E94A4
:100CB000550E8C2F47E451E060E070E00AEF10E041
:100CC00020E030E00E94E50184E090E04FEF5FE536
:100CD0006FEB70E021E00E94550E8C2F4AE253E04A
:100CE00060E070E00AEF10E020E030E00E94E501F3
:100CF00084E090E04FEF5FE56FEB70E021E00E9451
:100D0000550E8C2F4BE251E060E070E00AEF10E0EE
:100D100020E030E00E94E50182E090E04FEF5FE5E7
:100D20006FEB70E021E00E94550E83E090E04FEF02
:100D30005FE56FEB70E021E00E94550E84E061E01A
:100D400042E022E000E010E00E94800F8C2F45E698
:100D500050E060E070E00AEF10E020E030E00E9438
:100D6000E50184E061E042E022E000E010E00E9462
:100D7000800F8C2F4DEB50E060E070E00AEF10E048
:100D800020E030E00E94E50184E061E042E022E002
:100D900000E010E00E94800F8C2F4BE251E060E0F9
:100DA00070E00AEF10E020E030E00E94E50182E010
:100DB00090E04FEF5FE56FEB70E025E00E94550E8D
:100DC00083E090E04FEF5FE56FEB70E025E00E947D
:100DD000550E81E090E04FEF5FE56FEB70E021E0B2
:100DE0000E94550E84E061E042E022E000E010E065
:100DF0000E94800F8C2F42EF50E060E070E00AEF1D
:100E000010E020E030E00E94E50186E090E040E064
:100E100050E0BA0122E00E94550E8C2F4AE253E0C6
:100E200060E070E00AEF10E020E030E00E94E501B1
:100E3000CF911F910F91EF90089581E069E12FEF1D
:100E40003FEF4FEF50E00E94E80D0E947C0D89E7D4
:100E50000E94E0010895EF920F931F9389E090E0C4
:100E60000E946F0380E390E00E94350480E590E0EB
:100E70000E948A0284E061E00E94150F85E069E02B
:100E80000E94150F85E04FE651E060E070E00AEF48
:100E900010E020E030E0EE24E3940E94E50184E0DD
:100EA00069E00E94150F85E061E00E94150F85E062
:100EB00044EA52E060E070E00AEF10E020E030E049
:100EC0000E94E50184E061E00E94150F85E069E081
:100ED0000E94150F85E040E951E060E070E00AEF04
:100EE00010E020E030E00E94E50184E06CE00E9428
:100EF000150F85E061E00E94150F85E04EEA52E093
:100F000060E070E00AEF10E020E030E00E94E501D0
:100F100084E061E00E94150F85E06CE00E94150FEF
:100F200085E040EB51E060E070E00AEF10E020E087
:100F300030E00E94E50184E06FE00E94150F85E03B
:100F400061E00E94150F85E045E751E060E070E048
:100F50000AEF10E020E030E00E94E50184E061E06B
:100F60000E94150F85E06FE00E94150F85E04BE0B1
:100F700051E060E070E00AEF10E020E030E00E9415
:100F8000E50184E062E10E94150F85E061E00E94C6
:100F9000150F85E040EB51E060E070E00AEF10E0F3
:100FA00020E030E00E94E50184E061E00E94150F3E
:100FB00085E061E00E94150F81E169E020E030E00A
:100FC000A90101E00E940D0E87E06AE020E030E018
:100FD000A9010E940D0E85E044EA52E060E070E055
:100FE0000AEF10E020E030E00E94E50182E061E0DD
:100FF00042E022E000E010E00E94800F83E061E028
:1010000042E022E00E94800F84E061E042E022E0C2
:101010000E94800F85E04FE751E060E070E00AEF4A
:1010200010E020E030E00E94E50182E061E042E073
:1010300022E000E010E00E94800F83E061E042E0E7
:1010400022E00E94800F84E061E042E022E00E9402
:10105000800F85E04AE452E060E070E00AEF10E0C3
:1010600020E030E00E94E50182E061E042E022E021
:1010700000E010E00E94800F83E061E042E022E0A7
:101080000E94800F84E061E042E022E00E94800F35
:1010900085E041E951E060E070E00AEF10E020E017
:1010A00030E00E94E50182E061E042E022E000E001
:1010B00010E00E94800F83E061E042E022E00E94A5
:1010C000800F84E061E042E022E00E94800F85E032
:1010D0004AE551E060E070E00AEF10E020E030E027
:1010E0000E94E50182E061E042E022E000E010E0E1
:1010F0000E94800F83E061E042E022E00E94800FC6
:1011000084E061E042E022E00E94800F85E047EE4B
:1011100050E060E070E00AEF10E020E030E00E9474
:10112000E50182E061E042E022E000E010E00E94A0
:10113000800F83E061E042E022E00E94800F84E0C3
:1011400061E042E022E00E94800F85E04CE651E041
:1011500060E070E00AEF10E020E030E00E94E5017E
:1011600082E061E042E022E000E010E00E94800FB7
:1011700083E061E042E022E00E94800F84E061E0D1
:1011800042E022E00E94800F85E046E551E060E009
:1011900070E00AEF10E020E030E00E94E50182E01C
:1011A00061E042E022E000E010E00E94800F83E076
:1011B00061E042E022E00E94800F84E061E042E0D2
:1011C00022E00E94800F85E047EE50E060E070E092
:1011D0000AEF10E020E030E00E94E50182E061E0EB
:1011E00042E022E000E010E00E94800F83E061E036
:1011F00042E022E00E94800F84E061E042E022E0D1
:101200000E94800F85E041E751E060E070E00AEF66
:1012100010E020E030E00E94E50182E061E042E081
:1012200022E000E010E00E94800F83E061E042E0F5
:1012300022E00E94800F84E061E042E022E00E9410
:10124000800F85E043E752E060E070E00AEF10E0D5
:1012500020E030E00E94E50185E047EC51E060E0ED
:1012600070E00AEF10E020E030E00E94E50185E048
:1012700044E852E060E070E00AEF10E020E030E087
:101280000E94E50185E043EA51E060E070E00AEF8A
:1012900010E020E030E00E94E50185E042E851E006
:1012A00060E070E00AEF10E020E030E00E94E5012D
:1012B00085E042E051E060E070E00AEF10E020E0FD
:1012C00030E00E94E50185E047EA51E060E070E02F
:1012D0000AEF10E020E030E00E94E50185E04CE8F4
:1012E00051E060E070E00AEF10E020E030E00E94A2
:1012F000E50185E049E151E060E070E00AEF10E0CF
:1013000020E030E00E94E50185E040EB51E060E044
:1013100070E00AEF10E020E030E00E94E50185E097
:101320004BE752E060E070E00AEF10E020E030E0D0
:101330000E94E50185E045ED51E060E070E00AEFD4
:1013400010E020E030E00E94E50185E040E951E056
:1013500060E070E00AEF10E020E030E00E94E5017C
:1013600085E044E151E060E070E00AEF10E020E049
:1013700030E00E94E50185E041E951E060E070E085
:101380000AEF10E020E030E00E94E50185E040E750
:1013900051E060E070E00AEF10E020E030E00E94F1
:1013A000E50185E04DE351E060E070E00AEF10E018
:1013B00020E030E00E94E50185E04AEB51E060E08A
:1013C00070E00AEF10E020E030E00E94E50185E0E7
:1013D00047E651E060E070E00AEF10E020E030E026
:1013E0000E94E50185E04BE251E060E070E00AEF29
:1013F00010E020E030E00E94E50185E045E453E0A4
:1014000060E070E00AEF10E020E030E00E94E501CB
:1014100085E048ED50E060E070E00AEF10E020E089
:1014200030E00E94E50185E04CEA51E060E070E0C8
:101430000AEF10E020E030E00E94E50185E041EB9A
:1014400051E060E070E00AEF10E020E030E00E9440
:10145000E50185E046E251E060E070E00AEF10E06F
:1014600020E030E00E94E50185E04AE253E060E0E0
:1014700070E00AEF10E020E030E00E94E50185E036
:101480004BE251E060E070E00AEF10E020E030E075
:101490000E94E50185E049E751E060E070E00AEF75
:1014A00010E020E030E00E94E50185E045E951E0F0
:1014B00060E070E00AEF10E020E030E00E94E5011B
:1014C00085E049E351E060E070E00AEF10E020E0E1
:1014D00030E00E94E50185E044E154E060E070E026
:1014E0000AEF10E020E030E00E94E50185E041E9EC
:1014F00051E060E070E00AEF10E020E030E00E9490
:10150000E50185E04EE951E060E070E00AEF10E0AF
:1015100020E030E00E94E50185E04FE251E060E02C
:1015200070E00AEF10E020E030E00E94E50185E085
:1015300041E253E060E070E00AEF10E020E030E0CC
:101540000E94E50185E044E351E060E070E00AEFCD
:1015500010E020E030E00E94E50185E04CE851E039
:1015600060E070E00AEF10E020E030E00E94E5016A
:1015700085E047E651E060E070E00AEF10E020E02F
:1015800030E00E94E50185E047E25DE060E070E068
:101590000AEF10E020E030E00E94E50185E042EE35
:1015A00050E060E070E00AEF10E020E030E00E94E0
:1015B000E50185E044E551E060E070E00AEF10E00D
:1015C00020E030E00E94E50185E045E951E060E07F
:1015D00070E00AEF10E020E030E00E94E50185E0D5
:1015E00042E451E060E070E00AEF10E020E030E01B
:1015F0000E94E50185E046EF51E060E070E00AEF0F
:1016000010E020E030E00E94E50185E041ED5AE085
:1016100060E070E00AEF10E020E030E00E94E501B9
:1016200085E045E951E060E070E00AEF10E020E07D
:1016300030E00E94E50185E045E751E060E070E0C0
:101640000AEF10E020E030E00E94E50185E04DE186
:1016500051E060E070E00AEF10E020E030E00E942E
:10166000E50185E048ED5BE060E070E00AEF10E046
:1016700020E030E00E94E50185E046E251E060E0D4
:1016800070E00AEF10E020E030E00E94E50185E024
:101690004CE651E060E070E00AEF10E020E030E05E
:1016A0000E94E50185E04EE751E060E070E00AEF5E
:1016B00010E020E030E00E94E50185E046E251E0E4
:1016C00060E070E00AEF10E020E030E00E94E50109
:1016D00085E04AEF51E060E070E00AEF10E020E0C2
:1016E00030E00E94E50185E040EE5AE060E070E005
:1016F0000AEF10E020E030E00E94E50185E04EE9CD
:1017000051E060E070E00AEF10E020E030E00E947D
:10171000E50185E04BE651E060E070E00AEF10E0A3
:1017200020E030E00E94E50185E049E151E060E021
:1017300070E00AEF10E020E030E00E94E50185E073
:101740004FE456E060E070E00AEF10E020E030E0A7
:101750000E94E50185E044E554E060E070E00AEFB6
:1017600010E020E030E00E94E50185E041ED5CE022
:1017700060E070E00AEF10E020E030E00E94E50158
:1017800085E042E254E060E070E00AEF10E020E023
:1017900030E00E94E50185E04CE551E160E070E059
:1017A0000AEF10E020E030E00E94E50185E044E42B
:1017B00052E060E070E00AEF10E020E030E00E94CC
:1017C000E50185E047EA51E060E070E00AEF10E0F3
:1017D00020E030E00E94E50185E049EA52E060E067
:1017E00070E00AEF10E020E030E00E94E50185E0C3
:1017F00040E951E060E070E00AEF10E020E030E006
:101800000E94E50185E04EEA52E060E070E00AEFF8
:1018100010E020E030E00E94E50185E047EA51E079
:1018200060E070E00AEF10E020E030E00E94E501A7
:1018300085E042E851E060E070E00AEF10E020E06F
:1018400030E00E94E50185E047E051E060E070E0B3
:101850000AEF10E020E030E00E94E50185E042EA76
:1018600051E060E070E00AEF10E020E030E00E941C
:10187000E50185E04BE952E060E070E00AEF10E03E
:1018800020E030E00E94E50185E04CEA51E060E0B4
:1018900070E00AEF10E020E030E00E94E50185E012
:1018A00049EA52E060E070E00AEF10E020E030E04A
:1018B0000E94E50185E040E951E060E070E00AEF58
:1018C00010E020E030E00E94E50185E04CE952E0C4
:1018D00060E070E00AEF10E020E030E00E94E501F7
:1018E00085E04EE951E060E070E00AEF10E020E0B2
:1018F00030E00E94E50185E04BEF52E060E070E0EF
:101900000AEF10E020E030E00E94E50185E043E6C8
:1019100051E060E070E00AEF10E020E030E00E946B
:10192000E50185E046E952E060E070E00AEF10E092
:1019300020E030E00E94E50185E041E152E060E016
:1019400070E00AEF10E020E030E00E94E50185E061
:1019500042E552E060E070E00AEF10E020E030E0A5
:101960000E94E50185E04EEF51E060E070E00AEF93
:1019700010E020E030E00E94E50185E04AE751E018
:1019800060E070E00AEF10E020E030E00E94E50146
:1019900085E048EF50E060E070E00AEF10E020E002
:1019A00030E00E94E50185E04AE951E060E070E046
:1019B0000AEF10E020E030E00E94E50185E042E817
:1019C00051E060E070E00AEF10E020E030E00E94BB
:1019D000E50185E042E251E060E070E00AEF10E0EE
:1019E00020E030E00E94E50185E047EA51E060E058
:1019F00070E00AEF10E020E030E00E94E50185E0B1
:101A000047E952E060E070E00AEF10E020E030E0EB
:101A10000E94E50185E048EE51E060E070E00AEFE9
:101A200010E020E030E00E94E50185E04DE151E06A
:101A300060E070E00AEF10E020E030E00E94E50195
:101A400085E042E451E060E070E00AEF10E020E061
:101A500030E00E94E50185E04CEA51E060E070E092
:101A60000AEF10E020E030E00E94E50185E047E861
:101A700051E060E070E00AEF10E020E030E00E940A
:101A8000E50185E046EE50E060E070E00AEF10E02E
:101A900020E030E00E94E50185E048EE51E060E0A2
:101AA00070E00AEF10E020E030E00E94E50185E000
:101AB00042E651E060E070E00AEF10E020E030E044
:101AC0000E94E50185E04DE351E060E070E00AEF3F
:101AD00010E020E030E00E94E50185E048E652E0B9
:101AE00060E070E00AEF10E020E030E00E94E501E5
:101AF0001F910F91EF900895CF92DF92EF92FF9296
:101B00000F931F93CF93DF93E1E0F2E0C5E6D2E0BD
:101B100008E110E0CC24DD2476016894E7F845C0A4
:101B200080819181A281B38184239523A623B72349
:101B30000097A105B105B9F45E9A0000000000000D
:101B400000005E980000000000000000000000009F
:101B50000000000000000000000000000000000085
:101B60000000000016C05E9A0000000000000000A7
:101B700000000000000000000000000000005E986F
:101B80000000000000000000000000000000000055
:101B9000000075956795579547952150304009F09D
:101BA000BFCF3496EC17FD0721F09801B701A601CD
:101BB000B7CF87E191E00197F1F700C00000DF9116
:101BC000CF911F910F91FF90EF90DF90CF900895EC
:101BD000CF93DF93962FBA01A901282F30E0D901C6
:101BE000A90FB11D2A173B07ACF4C1E0D2E0215088
:101BF0003040F901EE0FFF1FEE0FFF1FEC0FFD1F2E
:101C000040835183628373838F5F282F30E02A17CC
:101C10003B076CF3DF91CF910895CF92DF92EF9263
:101C2000FF920F9369017A01482F50E09A01260F25
:101C3000311D421753075CF561E072E0053081F415
:101C400040FD1FC041505040FA01EE0FFF1FEE0F44
:101C5000FF1FE60FF71FC082D182E282F38211C01C
:101C6000013079F440FF0DC041505040FA01EE0FB1
:101C7000FF1FEE0FFF1FE60FF71FC082D182E28227
:101C8000F3828F5F482F50E042175307BCF20F9149
:101C9000FF90EF90DF90CF9008950F9301E00E94A6
:101CA0000D0E0E947C0D0F910895CF92DF92EF925E
:101CB000FF920F936A017B01022F81309105D1F4CD
:101CC00081E0213009F080E0882331F481E00530A3
:101CD00009F080E0882339F081E066E0A7019601F1
:101CE0000E940D0E97C081E066E0A70196010E9458
:101CF000E80D90C082309105D1F481E0213009F0E7
:101D000080E0882331F481E0053009F080E0882309
:101D100039F087E065E0A70196010E940D0E7AC0B8
:101D200087E065E0A70196010E94E80D73C083304B
:101D30009105D1F481E0213009F080E0882331F46D
:101D400081E0053009F080E0882339F08CE065E01F
:101D5000A70196010E940D0E5DC08CE065E0A70111
:101D600096010E94E80D56C084309105D1F481E0BF
:101D7000213009F080E0882331F481E0053009F05A
:101D800080E0882339F081E169E0A70196010E9493
:101D90000D0E40C081E169E0A70196010E94E80DA7
:101DA00039C085309105D1F481E0213009F080E01F
:101DB000882331F481E0053009F080E0882339F090
:101DC00087E06AE0A70196010E940D0E23C087E01C
:101DD0006AE0A70196010E94E80D1CC086309105BB
:101DE000C9F481E0213009F080E0882331F481E0FA
:101DF000053009F080E0882339F081E069E1A7012E
:101E000096010E940D0E06C081E069E1A7019601CE
:101E10000E94E80D0F91FF90EF90DF90CF90089512
:101E20000E94550E0E947C0D0895DF92EF92FF9262
:101E30000F931F93CF93DF93CDB7DEB7C058D04039
:101E40000FB6F894DEBF0FBECDBFDE011196E0E8FD
:101E5000F1E090E801900D929150E1F7813069F046
:101E6000823071F0833079F0843081F0853089F0F0
:101E70008630B9F511E089E10EC011E086E00BC0B3
:101E800017E085E008C01CE085E005C011E189E0AD
:101E900002C017E08AE0E82EFF24E10EF11C062FB5
:101EA0000F5FDD24003210F4E02F01C0ED2DF0E0D3
:101EB000EE0FFF1FEE0FFF1F81E090E08C0F9D1FC4
:101EC000E80FF91F2081318142815381812F61E028
:101ED0000E94E80D1F5F0F5F812F90E08E159F0518
:101EE0000CF3C058DF4F0FB6F894DEBF0FBECDBF66
:101EF000DF91CF911F910F91FF90EF90DF900895A8
:101F00002F923F924F925F926F927F928F929F9209
:101F1000AF92BF92CF92DF92EF92FF920F931F93F7
:101F2000CF93DF9300D000D000D0CDB7DEB7D42E52
:101F30005801662309F461E0813049F0823051F0A4
:101F4000833059F0843061F010E070E00BC011E094
:101F500076E008C017E075E005C01CE075E002C03F
:101F600011E179E0862E99240894811C911C22E0CD
:101F7000821691040CF4DBC001E0212F30E0C9018E
:101F80000197880F991F880F991F41E052E0480F71
:101F9000591F5A834983A901470F511DCA0103974D
:101FA000880F991F880F991F0F2EF1E02F2EF2E056
:101FB0003F2EF02D280E391EC72EC10EC901880FE5
:101FC000991F880F991FA1E0B2E0A80FB91FBE8327
:101FD000AD830F2EFCEFEF2EFFEFFF2EF02DE40E62
:101FE000F51EC701880F991F880F991FE1E0F2E0E5
:101FF000E80FF91FFC83EB83F1E0DF16F1F5D10167
:102000004D905D906D907C90E981FA818081918105
:10201000A281B381F10180839183A283B383212FB5
:10202000215030E02E153F050CF5E12FC901019636
:10203000880F991F880F991F8F5F9D4FDC014D916D
:102040005D916D917C91C901880F991F880F991F2F
:102050008F5F9D4FDC014D935D936D937C93139740
:102060002E2F30E0EF5F2E153F0504F3EB81FC814E
:1020700040825182628273823EC0F2E0DF16D9F55F
:10208000A981BA814D905D906D907C90F101808125
:102090009181A281B381E981FA8180839183A283B6
:1020A000B3832C2D23501217F8F4E22FF0E0CF0168
:1020B0000197880F991F880F991F8F5F9D4FDC0133
:1020C0004D915D916D917C911397CF01880F991F70
:1020D000880F991F8F5F9D4FFC014083518362835E
:1020E00073832150121708F3AD81BE814D925D922A
:1020F0006D927C9213970E947C0DA114B10481F023
:10210000C501019769F020E030E0EFE9FFE0319789
:10211000F1F700C000002F5F3F4F28173907A8F3E1
:102120000F5F802F90E0881599050CF465CF2696F7
:102130000FB6F894DEBF0FBECDBFDF91CF911F91D8
:102140000F91FF90EF90DF90CF90BF90AF909F9056
:102150008F907F906F905F904F903F902F90089559
:102160000F931F930E94800F0E947C0D1F910F916F
:062170000895F894FFCF72
:102176000021FF000042FF000063FF000084FF0013
:1021860000A5FF0000C6FF0000E7FF0000FFFF00FC
:1021960000FFDE0000FFBD0000FF9C0000FF7B008B
:1021A60000FF5A0000FF390000FF180000FF000082
:1021B60021FF000042FF000063FF000084FF0000D3
:1021C600A5FF0000C6FF0000E7FF0000FFFF0000BC
:1021D600FFE70000FFC60000FFA50000FF84000027
:1021E600FF630000FF420000FF210000FF00000027
:1021F6000021FF000042FF000063FF000084FF0093
:1022060000A5FF0000C6FF0000E7FF0000FFFF007B
:1022160000FFDE0000FFBD0000FF9C0000FF7B000A
:1022260000FF5A0000FF390000FF180000FF000001
:1022360021FF000042FF000063FF000084FF000052
:10224600A5FF0000C6FF0000E7FF0000FFFF00003B
:10225600FFE70000FFC60000FFA50000FF840000A6
:10226600FF630000FF420000FF210000FF000000A6
:00000001FF
