S02600004130303335202D204361726E6176616C206B6C6564696E672052455620462E73726563EF
S11300000C9434000C9451000C9451000C94510045
S11300100C9451000C9451000C9451000C94510018
S11300200C9451000C9451000C9451000C94580001
S11300300C9451000C9451000C9451000C945100F8
S11300400C9451000C9451000C9451000C945100E8
S11300500C9451000C9451000C9451000C945100D8
S11300600C9451000C94510011241FBECFEFD8E022
S1130070DEBFCDBF12E0A0E0B1E0E8EFF2E602C0DF
S113008005900D92A638B107D9F712E0A6E8B2E0C0
S113009001C01D92A63FB107E1F70E9453000C94E2
S11300A07A310C9400000E9481000E94B613FDCFA7
S11300B01F920F920FB60F9211248F939F93EF9379
S11300C0FF938091900290919102009751F080915A
S11300D090029091910201979093910280939002E3
S11300E007C010928F02E1E8F0E080818E7F808368
S11300F0FF91EF919F918F910F900FBE0F901F90E2
S11301001895579A209A5F982898559A5D98E1E82F
S1130110F0E0808188608083EFE6F0E08081826097
S1130120808382EE9DE39093890080938800789485
S113013060E070E0CB010E94AD2980E00E940329B9
S11301400E94D8280E9427290895909391028093B1
S1130150900281E080938F02E1E8F0E08081816089
S11301608083089580918F028823E1F70E94D82824
S11301700E9427290895909186029F5F909386029A
S113018090910001981720F4109286028093000148
S1130190089580E00E94032960E070E0CB010E9492
S11301A0AD2908958FEF0E94032964E474E484E484
S11301B090E00E94AD290895CF93DF93EC0180E095
S11301C00E9403290E94B200CE010E94A5008FEF75
S11301D00E940329DF91CF910895CF93DF93EC011F
S11301E08BE490E00E94A50082E00E94BB00CE0157
S11301F08B5490400E94DC000E94B200DF91CF91AA
S113020008950E94A50083E00E94BB0080918602AD
S1130210882309F068C060E070E0CB010E94AD293A
S113022060E070E08FEF90E044E022E00E946C2AEE
S113023060E07FEF80E090E044E023E00E946C2ADD
S113024060E07FEF80E090E044E025E00E946C2ACB
S113025060E070E08FEF90E044E026E00E946C2ABA
S113026060E070E08FEF90E042E023E00E946C2AAF
S113027060E07FEF80E090E042E022E00E946C2AA0
S113028060E070E08FEF90E043E023E00E946C2A8E
S113029060E07FEF80E090E043E022E00E946C2A7F
S11302A060E07FEF80E090E041E021E00E946C2A72
S11302B060E070E08FEF90E041E023E00E946C2A60
S11302C060E070E08FEF90E041E024E00E946C2A4F
S11302D060E07FEF80E090E041E026E00E946C2A3D
S11302E081E08093860281E061E00E94BC2A81E083
S11302F062E00E94BC2A81E063E00E94BC2A81E0A3
S113030064E00E94BC2A81E065E00E94BC2A8091DE
S11303108602823058F460E070E08FEF90E020E0D5
S11303203FE74FEF50E00E94DA2C28C0833058F4A6
S113033060E07FEF80E090E02FEF30E040E050E0BD
S11303400E94DA2C1BC0843058F460E07FE78FEF02
S113035090E020E030E04FEF50E00E94DA2C0EC035
S1130360853060F46FEF70E080E090E020E03FEFD4
S113037040E050E00E94DA2C109286020E94B20003
S113038008950E94A50084E00E94BB00809186022B
S1130390882309F084C060E070E0CB010E94AD299D
S11303A08FEF0E94032960E070E08FEF90E044E05B
S11303B021E00E946C2A60E07FE78FEF90E044E048
S11303C022E00E946C2A6FEF70E080E090E044E04D
S11303D023E00E946C2A60E070E08FEF90E044E03C
S11303E025E00E946C2A60E07FE78FEF90E044E014
S11303F026E00E946C2A60E07FEF80E090E044E019
S113040027E00E946C2A60E07FEF80E090E042E009
S113041021E00E946C2A60E070E08FEF90E042E0FF
S113042023E00E946C2A60E07FE78FEF90E042E0D7
S113043025E00E946C2A60E070E08FEF90E043E0DA
S113044021E00E946C2A6FEF70E080E090E043E0CE
S113045023E00E946C2A60E07FEF80E090E043E0BC
S113046025E00E946C2A60E070E08FEF90E041E0AC
S113047021E00E946C2A60E07FEF80E090E041E0A0
S113048023E00E946C2A60E07FE78FEF90E041E078
S113049025E00E946C2A81E08093860202C08230AB
S11304A030F560E070E08FEF90E020E03FEF40E057
S11304B050E00E94DA2C80918602823018F080E0AD
S11304C00E94032980E061E00E94BC2A81E062E08E
S11304D00E94BC2A80E063E00E94BC2A81E064E0C0
S11304E00E94BC2A80E065E00E94BC2A6BC0833075
S11304F070F460E07FE78FEF90E020E03FE74FEF9C
S113050050E00E94DA2C8FEF0E9403295BC08430F4
S1130510F0F460E07FEF80E090E020E030E04FEF27
S113052050E00E94DA2C80E00E94032980E061E020
S11305300E94BC2A80E063E00E94BC2A81E064E05F
S11305400E94BC2A80E065E00E94BC2A3BC0853042
S113055058F46FEF70E080E090E020E03FE74FEF69
S113056050E00E94DA2C2EC08630D8F460E070E0AF
S11305708FEF90E02FEF30E040E050E00E94DA2C63
S113058080E061E00E94BC2A81E062E00E94BC2A13
S113059081E064E00E94BC2A80E065E00E94BC2AFD
S11305A011C0873078F460E07FE78FEF90E020E0BF
S11305B030E04FEF50E00E94DA2C8FEF0E940329C5
S11305C0109286020E94B2000895CF93DF93EC014B
S11305D084E690E00E94A50085E00E94BB0060E0F4
S11305E070E0CB010E94AD29CE01845690400E9458
S11305F0DC0080918602813111F40E94C9000E94BE
S1130600B200DF91CF910895CF93DF93EC0181E0A5
S113061090E00E94A50086E00E94BB0080918702C2
S113062091E0813009F090E0992331F491E0833036
S113063009F090E0992351F00E94B200CE0108978E
S11306400E94A50080E00E9403290DC0823059F465
S11306500E94B2008BE490E00E94A500CE01885570
S113066090400E94DC0080918602882381F481E01E
S113067040E050E0BA0120E00E94A53081E040E073
S11306805FE86FEF70E020E00E94A5305CC081302D
S113069041F440E05FE86FEF70E020E00E94A53095
S11306A052C0823041F481E040E050E0BA0120E0E1
S11306B00E94A53048C0833049F481E040E05FEFF8
S11306C06FE070E020E00E94A5303DC0843049F422
S11306D081E040E05FEF6FE070E020E00E94A53031
S11306E032C0853049F481E049EA50E060E670E0C8
S11306F020E00E94A53027C0863041F481E040E02C
S113070050E0BA0121E00E94A5301DC0809187020B
S1130710813039F440E050E0BA0121E00E94A53074
S113072012C0823039F440E050E0BA0121E00E9466
S1130730A53009C0833039F481E040E050E0BA01CB
S113074021E00E94C730DF91CF910895CF93DF93CA
S1130750EC0181E090E00E94A50087E00E94BB00CC
S113076080918702833089F40E94B2008CE490E087
S11307700E94A50060E070E0CB010E94AD29CE018B
S11307808C5490400E94DC0005C00E94B200CE014F
S11307900E94A5008091870291E020918602211198
S11307A090E0992339F491E0843009F090E09923A2
S11307B009F45FC060E077E48FEF90E041E023E06C
S11307C00E946C2A60E077EC8FEF90E041E026E035
S11307D00E946C2A60E07FEF8FE390E042E022E029
S11307E00E946C2A60E077EC8FEF90E042E024E016
S11307F00E946C2A60E07FEF8FE390E043E023E007
S11308000E946C2A60E077EC8FEF90E043E025E0F3
S11308100E946C2A60E077E48FEF90E044E025E0EA
S11308200E946C2A60E077EC8FEF90E044E029E0CE
S11308300E946C2A60E077E48FEF90E044E022E0CD
S11308400E946C2A60E077EC8FEF90E044E026E0B1
S11308500E946C2A60E07FEF8FE390E044E021E0A7
S11308600E946C2A80E00E94032981E08093870221
S113087002C08130A9F481E061E00E94BC2A81E0D9
S113088062E00E94BC2A81E063E00E94BC2A80E00E
S113089064E00E94BC2A81E065E00E94BC2A05C095
S11308A0853019F48FEF0E9403290E94B200DF9172
S11308B0CF9108950E94A50088E00E94BB0064E4E3
S11308C074E484E490E00E94AD290E94B20008958B
S11308D0CF93DF93EC0181E090E00E94A50089E0D2
S11308E00E94BB0080918702823059F40E94B200BA
S11308F080E590E00E94A500CE01C0970E94DC0034
S113090009C00E94B200CE010C960E94A50080E0AE
S11309100E94032980918602882329F460E070E014
S1130920CB010E94AD29209186022A3018F5822F2E
S113093090E0880F991FFC01EE0FFF1FEE0FFF1FC1
S11309408E0F9F1FFC01EE0FFF1FEE0FFF1FEF5FC7
S1130950FE4F408151816281738181E020E00E94D9
S1130960A53080918602873009F0CCC08BE080935B
S11309708602C8C0822F8551853418F5822F90E0F5
S1130980880F991FFC01EE0FFF1FEE0FFF1F8E0F44
S11309909F1FFC01EE0FFF1FEE0FFF1FE756F540F0
S11309A0408151816281738182E020E00E94C730DE
S11309B0809186028C3209F0A5C08BE58093860273
S11309C0A1C02C3091F560E070E0CB0144E022E05E
S11309D00E946C2A60E070E0CB0144E023E00E94B6
S11309E06C2A60E070E0CB0144E026E00E946C2AAF
S11309F060E070E0CB0144E027E00E946C2A60E0F4
S1130A0070E0CB0141E020E00E94172A60E070E032
S1130A10CB0142E020E00E94172A60E070E0CB01A5
S1130A2043E021E00E94172A6DC02C3591F560E067
S1130A3070E0CB0144E022E00E946C2A60E070E0A8
S1130A40CB0144E023E00E946C2A60E070E0CB011B
S1130A5044E026E00E946C2A60E070E0CB0144E0B0
S1130A6027E00E946C2A60E070E0CB0141E020E0C6
S1130A700E94172A60E070E0CB0142E020E00E946F
S1130A80172A60E070E0CB0143E021E00E94172ABE
S1130A9039C02D35D8F080E061E00E94BC2A80E0A6
S1130AA062E00E94BC2A80E063E00E94BC2A80E0ED
S1130AB064E00E94BC2A80E065E00E94BC2A809128
S1130AC086028336F8F0109286021CC02431A8F402
S1130AD081E061E00E94BC2A81E062E00E94BC2ABD
S1130AE081E063E00E94BC2A81E064E00E94BC2AA9
S1130AF080E065E00E94BC2A05C0243119F488E234
S1130B00809386020E94B200DF91CF910895CF9323
S1130B10DF93EC0181E090E00E94A5008AE00E944E
S1130B20BB0080918602882361F40E94C9000E9460
S1130B30B20080EA90E06FE040E00E9406290E9443
S1130B40C90080918602823068F00E94B20084E17C
S1130B5090E00E94A5000E94C900CE0149970E941E
S1130B60DC0006C00E94B200CE0105970E94A500D9
S1130B700E94B200DF91CF9108950E94A5008BE0FE
S1130B800E94BB000E94B20008950E94A5008CE060
S1130B900E94BB0080918602882311F40E94C90040
S1130BA080E10E94E930DC01CB010097A105B10589
S1130BB009F04CC064E474E484E490E042E022E090
S1130BC00E94172A60E070E0CB0143E022E00E941B
S1130BD0172A64E474E484E490E041E021E00E9494
S1130BE06C2A64E474E484E490E041E022E00E942E
S1130BF06C2A64E474E484E490E041E023E00E941D
S1130C006C2A60E070E0CB0141E024E00E946C2A91
S1130C1060E070E0CB0141E025E00E946C2A60E0D6
S1130C2070E0CB0141E026E00E946C2A64E474E4A5
S1130C3084E490E044E027E00E946C2A60E070E0E5
S1130C40CB0144E023E00E946C2A4BC060E070E0DA
S1130C50CB0142E022E00E94172A64E474E484E4B5
S1130C6090E043E022E00E94172A60E070E0CB01AC
S1130C7041E021E00E946C2A60E070E0CB0141E099
S1130C8022E00E946C2A60E070E0CB0141E023E0A6
S1130C900E946C2A64E474E484E490E041E024E07B
S1130CA00E946C2A64E474E484E490E041E025E06A
S1130CB00E946C2A64E474E484E490E041E026E059
S1130CC00E946C2A60E070E0CB0144E027E00E94BF
S1130CD06C2A64E474E484E490E044E023E00E9439
S1130CE06C2A81E0809387020E94B20008950E94DA
S1130CF0A5008DE00E94BB0080E10E94E930DC0188
S1130D00CB010097A105B10509F04CC064E474E47B
S1130D1084E490E042E022E00E94172A60E070E060
S1130D20CB0143E022E00E94172A64E474E484E4E3
S1130D3090E041E021E00E946C2A64E474E484E4DD
S1130D4090E041E022E00E946C2A64E474E484E4CC
S1130D5090E041E023E00E946C2A60E070E0CB0167
S1130D6041E024E00E946C2A60E070E0CB0141E0A5
S1130D7025E00E946C2A60E070E0CB0141E026E0AF
S1130D800E946C2A64E474E484E490E044E027E084
S1130D900E946C2A60E070E0CB0144E023E00E94F2
S1130DA06C2A4BC060E070E0CB0142E022E00E947C
S1130DB0172A64E474E484E490E043E022E00E94AF
S1130DC0172A60E070E0CB0141E021E00E946C2A28
S1130DD060E070E0CB0141E022E00E946C2A60E018
S1130DE070E0CB0141E023E00E946C2A64E474E4E7
S1130DF084E490E041E024E00E946C2A64E474E41A
S1130E0084E490E041E025E00E946C2A64E474E408
S1130E1084E490E041E026E00E946C2A60E070E007
S1130E20CB0144E027E00E946C2A64E474E484E487
S1130E3090E044E023E00E946C2A8091870286308F
S1130E4019F40E94C90004C0853011F40E94D20034
S1130E500E94B20008950E94A5008EE00E94BB008B
S1130E600E94C9000E94B2000895CF92DF92EF92CF
S1130E70FF92CF93DF9305970E94A5008FE00E9415
S1130E80BB000E94C90020918602222311F4109213
S1130E908702E0918702F0E0EE0FFF1FEE0FFF1FC5
S1130EA0EF5FFE4FC080D180E280F380C701B601BE
S1130EB041E00E946C2AC701B60142E020918602FB
S1130EC00E946C2AC701B60143E0209186020E9469
S1130ED06C2AC701B60144E0209186020E946C2A64
S1130EE0D9E0809186022D2F281BC701B60144E06A
S1130EF00E946C2AC5E0809186022C2F281BC70112
S1130F00B60141E00E946C2A809186022C2F281B96
S1130F10C701B60142E00E946C2A809186022C2F00
S1130F20281BC701B60143E00E946C2A8091860207
S1130F302D2F281BC701B60144E00E946C2AC7016B
S1130F40B60144E0209186020E946C2A80918602B8
S1130F50823011F410928602809187028E3518F047
S1130F601092870203C08D5F809387020E94B200B3
S1130F70DF91CF91FF90EF90DF90CF900895CF92C3
S1130F80DF92EF92FF92CF93DF9305970E94A50023
S1130F9080E10E94BB0020918602222311F410926A
S1130FA08702E0918702F0E0EE0FFF1FEE0FFF1FB4
S1130FB0EF5FFE4FC080D180E280F380C701B601AD
S1130FC041E00E946C2AC701B60142E020918602EA
S1130FD00E946C2AC701B60143E0209186020E9458
S1130FE06C2AC701B60144E0209186020E946C2A53
S1130FF0D9E0809186022D2F281BC701B60144E059
S11310000E946C2AC5E0809186022C2F281BC70100
S1131010B60141E00E946C2A809186022C2F281B85
S1131020C701B60142E00E946C2A809186022C2FEF
S1131030281BC701B60143E00E946C2A80918602F6
S11310402D2F281BC701B60144E00E946C2AC7015A
S1131050B60144E0209186020E946C2A81E061E09E
S11310600E94BC2A81E062E00E94BC2A81E063E025
S11310700E94BC2A81E064E00E94BC2A81E065E011
S11310800E94BC2A80918602833011F41092860259
S1131090809187028E3518F01092870203C08D5F0D
S11310A0809387020E94B200DF91CF91FF90EF906E
S11310B0DF90CF900895CF92DF92EF92FF92CF937B
S11310C0DF9306970E94A50081E10E94BB008091F6
S11310D08602882311F410928702E0918702F0E0DF
S11310E0EE0FFF1FEE0FFF1FEF5FFE4FC080D1809A
S11310F0E280F3800E94C900C701B60141E020915B
S113110086020E946C2AC701B60142E02091860241
S11311100E946C2AC701B60143E0209186020E9416
S11311206C2AC701B60144E0209186020E946C2A11
S1131130D9E0809186022D2F281BC701B60144E017
S11311400E946C2AC5E0809186022C2F281BC701BF
S1131150B60141E00E946C2A809186022C2F281B44
S1131160C701B60142E00E946C2A809186022C2FAE
S1131170281BC701B60143E00E946C2A80918602B5
S11311802D2F281BC701B60144E00E946C2AC70119
S1131190B60144E0209186020E946C2A8091860266
S11311A0823011F410928602809187028E3518F0F5
S11311B01092870203C08D5F809387020E94B20061
S11311C0DF91CF91FF90EF90DF90CF900895CF9271
S11311D0DF92EF92FF92CF93DF930E94A50082E10A
S11311E00E94BB0080918602882311F4109287022A
S11311F0E0918702F0E0EE0FFF1FEE0FFF1FEF5F9D
S1131200FE4FC080D180E280F38060E070E0CB01CB
S113121041E020E00E94172A60E070E0CB0142E048
S113122020E00E94172A60E070E0CB0143E020E058
S11312300E94172A60E070E0CB0144E020E00E94A5
S1131240172AC701B60141E0209186020E946C2A48
S1131250C701B60142E0209186020E946C2AC701B0
S1131260B60143E0209186020E946C2AC701B601B0
S113127044E0209186020E946C2AD9E08091860283
S11312802D2F281BC701B60144E00E946C2AC5E03B
S1131290809186022C2F281BC701B60141E00E94D1
S11312A06C2A809186022C2F281BC701B60142E0CC
S11312B00E946C2A809186022C2F281BC701B6013C
S11312C043E00E946C2A809186022D2F281BC701BF
S11312D0B60144E00E946C2AC701B60144E02091A3
S11312E086020E946C2A80E061E00E94BC2A80E0B1
S11312F062E00E94BC2A81E063E00E94BC2A80E094
S113130064E00E94BC2A80E065E00E94BC2A8091CF
S11313108602833011F410928602809187028E3502
S113132018F01092870203C08D5F809387020E9499
S1131330B200DF91CF91FF90EF90DF90CF900895AE
S1131340CF92DF92EF92FF92CF93DF930E94A5009A
S113135083E10E94BB0080918602882311F41092DD
S11313608702E0918702F0E0EE0FFF1FEE0FFF1FF0
S1131370EF5FFE4FC080D180E280F3800E94C900FD
S1131380C701B60141E0209186020E946C2AC70180
S1131390B60142E0209186020E946C2AC701B60180
S11313A043E0209186020E946C2AC701B60144E002
S11313B0209186020E946C2AD9E0809186022D2F0A
S11313C0281BC701B60144E00E946C2AC5E0809145
S11313D086022C2F281BC701B60141E00E946C2A0B
S11313E0809186022C2F281BC701B60142E00E947F
S11313F06C2A809186022C2F281BC701B60143E07A
S11314000E946C2A809186022D2F281BC701B601E9
S113141044E00E946C2AC701B60144E02091860290
S11314200E946C2A80918602843029F410928602EC
S11314308FEF0E940329809187028E3518F0109255
S1131440870203C08D5F809387020E94B200DF9100
S1131450CF91FF90EF90DF90CF9008950E94A50068
S113146084E10E94BB000E94C9000E94B20008955A
S11314700E94A50085E10E94BB008091860288231A
S113148041F486E58093860280EB90E0A4E6B0E028
S113149015C0282F275020938602E22FF0E0EE0F8C
S11314A0FF1FEE0FFF1FEF5FFE4F80819181A2812E
S11314B0B381283018F42DE5209386022091870209
S11314C0213009F048C0BC01CD010E94AD2980E063
S11314D00E94032981E090918702913009F080E015
S11314E091E020918802211190E09923D9F088237A
S11314F0C9F060E070E0CB0141E020E00E94172ACF
S113150060E070E0CB0142E020E00E94172A60E036
S113151070E0CB0143E021E00E94172A81E0809330
S1131520880219C08823B9F060E070E0CB0141E083
S113153021E00E94172A60E070E0CB0142E021E044
S11315400E94172A60E070E0CB0143E020E00E9493
S1131550172A109288020E94B200089502970E94EE
S1131560A50086E10E94BB0080918602882341F495
S113157086E58093860280EB90E0A4E6B0E015C097
S1131580282F275020938602E22FF0E0EE0FFF1F52
S1131590EE0FFF1FEF5FFE4F80819181A281B38127
S11315A0283018F42DE520938602209187022130FB
S11315B009F056C0BC01CD010E94AD2980E00E9413
S11315C0032981E090918702913009F080E091E055
S11315D020918802211190E0992311F1882301F1CF
S11315E060E070E0CB0141E020E00E94172A60E057
S11315F070E0CB0142E020E00E94172A60E070E036
S1131600CB0143E021E00E94172A60E070E0CB01A7
S113161044E021E00E94172A81E08093880220C0E0
S11316208823F1F060E070E0CB0141E021E00E940A
S1131630172A60E070E0CB0142E021E00E94172A03
S113164060E070E0CB0143E020E00E94172A60E0F4
S113165070E0CB0144E020E00E94172A1092880237
S11316600E94B2000895CF93DF93EC01D695C795FD
S1131670CE010E94A50087E10E94BB0080918602F2
S1131680882341F486E58093860280EB90E0A4E60B
S1131690B0E015C0282F275020938602E22FF0E0F7
S11316A0EE0FFF1FEE0FFF1FEF5FFE4F8081918152
S11316B0A281B381283018F42DE52093860220916D
S11316C08702213009F041C0BC01CD010E94AD293F
S11316D080E00E94032981E090918702913009F013
S11316E080E091E020918802211190E09923A1F0FB
S11316F0882391F060E070E0CB0141E020E00E949B
S1131700172A60E070E0CB0142E020E00E94172A33
S113171081E08093880212C08823B9F060E070E011
S1131720CB0143E020E00E94172A60E070E0CB0187
S113173044E020E00E94172A1092880280918702D8
S1131740813019F41092870203C081E080938702EC
S11317500E94B200CE0104970E94A50087E10E9476
S1131760BB0080918602882341F486E5809386023B
S113177080EB90E0A4E6B0E015C0282F275020931A
S11317808602E22FF0E0EE0FFF1FEE0FFF1FEF5F68
S1131790FE4F80819181A281B381283018F42DE518
S11317A02093860220918702213029F5BC01CD01C6
S11317B00E94AD2980E00E94032981E09091870274
S11317C0913009F080E091E020918802211190E0AD
S11317D0992331F0882321F081E08093880204C0AA
S11317E0882349F01092880280918702813019F48D
S11317F01092870203C081E0809387020E94B200A6
S1131800DF91CF9108950F931F93CF93DF930297A6
S11318100E94A50088E10E94BB0080918602882373
S113182019F4109288020BC080918702813039F438
S113183010928702209188022A3010F15BC081E067
S113184080938702C0E0D0E001E011E0809188023B
S1131850FE01E80FF11DEE0FFF1FEE0FFF1FE00F5B
S1131860F11F60817181828193814C2F0E949E2996
S11318702196CA31D10551F78FEF0E940329C6C0C2
S113188060E070E0CB0144E00E946C2A60E070E00C
S1131890CB0141E0209188020E946C2A20918802A9
S11318A02E5F60E070E0CB0141E00E946C2A60E0B2
S11318B070E0CB0142E0209188020E946C2A2091C2
S11318C088022E5F60E070E0CB0142E00E946C2A47
S11318D060E070E0CB0143E0209188020E946C2A12
S11318E0209188022E5F60E070E0CB0143E00E940B
S11318F06C2A64C0CCE0822F6C2F0E946E31282F9A
S113190060E070E0CB0141E00E946C2A8091880283
S11319106C2F0E946E31282F60E070E0CB0142E012
S11319200E946C2A809188026C2F0E946E31282FAD
S113193060E070E0CB0143E00E946C2A8091880251
S11319406C2F0E946E31282F60E070E0CB0144E0E0
S11319500E946C2A809188026C2F0E946E31282F7D
S11319602E5F60E070E0CB0141E00E946C2A809120
S113197088026C2F0E946E31282F2E5F60E070E089
S1131980CB0142E00E946C2A809188026C2F0E9455
S11319906E31282F2E5F60E070E0CB0143E00E949F
S11319A06C2A809188026C2F0E946E31282F2E5F42
S11319B060E070E0CB0144E00E946C2AE091880270
S11319C0EE3288F0F0E0EE0FFF1FEE0FFF1FE35B37
S11319D0FF4F208131814281538160E070E0CB016F
S11319E00E94DA2C10C0F0E0EE0FFF1FEE0FFF1F75
S11319F0EB54FE4F208131814281538160E070E0DD
S1131A00CB010E94DA2C80E00E94032920918802F5
S1131A10223420F01092880220E005C02E5F20932B
S1131A2088022A30D0F560E070E0CB0144E00E94E7
S1131A306C2A60E070E0CB0141E0209188020E94B2
S1131A406C2A209188022E5F60E070E0CB0141E0B7
S1131A500E946C2A60E070E0CB0142E02091880291
S1131A600E946C2A209188022E5F60E070E0CB0116
S1131A7042E00E946C2A60E070E0CB0143E02091D8
S1131A8088020E946C2A209188022E5F60E070E038
S1131A90CB0143E00E946C2A64C0CCE0822F6C2FFF
S1131AA00E946E31282F60E070E0CB0141E00E947B
S1131AB06C2A809188026C2F0E946E31282F60E07E
S1131AC070E0CB0142E00E946C2A809188026C2F66
S1131AD00E946E31282F60E070E0CB0143E00E9449
S1131AE06C2A809188026C2F0E946E31282F60E04E
S1131AF070E0CB0144E00E946C2A809188026C2F34
S1131B000E946E31282F2E5F60E070E0CB0141E02F
S1131B100E946C2A809188026C2F0E946E31282FBB
S1131B202E5F60E070E0CB0142E00E946C2A80915D
S1131B3088026C2F0E946E31282F2E5F60E070E0C7
S1131B40CB0143E00E946C2A809188026C2F0E9492
S1131B506E31282F2E5F60E070E0CB0144E00E94DC
S1131B606C2A0E94B200DF91CF911F910F910895CA
S1131B70CF93DF93EC0181E090E00E94A50089E11E
S1131B800E94BB0080918602882351F41092870240
S1131B9060E070E08FEF90E044E022E00E94172ABA
S1131BA080918702813061F40E94B2008BE490E05E
S1131BB00E94A500CE01855590400E94DC0009C01A
S1131BC00E94B200CE0107970E94A50080E00E9407
S1131BD0032984E062E00E94112D84E063E00E9406
S1131BE0112DE0918602F0E0EE0FFF1FEE0FFF1FB4
S1131BF0EE0FFF1FC1E0D1E0EE0FFF1FEE0FFF1F3E
S1131C00EC0FFD1F608171818281938144E022E0A9
S1131C100E94172A8091860290E0880F991F880FEE
S1131C20991F880F991F0A96880F991F880F991F6B
S1131C30C80FD91F688179818A819B8141E022E0A4
S1131C400E94172A809186028A3018F01092860228
S1131C506CC0873049F1883020F4853009F065C0C4
S1131C6006C08B30F1F18D3009F05FC042C060E0F6
S1131C7070E0CB0141E020E00E94172A60E070E0B0
S1131C80CB0142E020E00E94172A60E070E0CB0123
S1131C9043E021E00E94172A60E070E0CB0144E0B9
S1131CA020E00E94172A41C060E070E0CB0141E0CF
S1131CB021E00E94172A60E070E0CB0142E021E0BD
S1131CC00E94172A60E070E0CB0143E020E00E940C
S1131CD0172A60E070E0CB0144E021E00E94172A5B
S1131CE024C060E070E0CB0141E022E00E94172AAA
S1131CF01CC060E070E0CB0141E022E00E94172AA2
S1131D0060E070E0CB0142E022E00E94172A60E02C
S1131D1070E0CB0143E022E00E94172A60E070E00B
S1131D20CB0144E022E00E94172A0E94B200DF9116
S1131D30CF91089506970E94A5008AE10E94BB00F6
S1131D4080918602882319F41092870204C080913E
S1131D508702882349F560E070E0CB010E94AD2939
S1131D6081E08093870269E870E086E490E041E0D6
S1131D7021E00E94172A69E870E086E490E042E0DE
S1131D8021E00E94172A69E870E086E490E043E0CD
S1131D9020E00E94172A69E870E086E490E044E0BD
S1131DA021E00E94172A66C08130D1F469E870E00E
S1131DB086E490E02FED3FE140E050E00E94DA2C11
S1131DC082E08093870281E061E00E94BC2A81E086
S1131DD062E00E94BC2A81E063E00E94BC2A4AC0FF
S1131DE0823049F560E070E0CB010E94AD2983E0C8
S1131DF08093870260E07FEF8FE290E041E020E093
S1131E000E94172A60E07FEF8FE290E042E020E03A
S1131E100E94172A60E07FEF8FE290E043E021E028
S1131E200E94172A60E07FEF8FE290E044E020E018
S1131E300E94172A1FC08330C9F460E07FEF8FE24D
S1131E4090E020E037EE4FEF50E00E94DA2C109241
S1131E50870280E061E00E94BC2A80E062E00E9488
S1131E60BC2A80E063E00E94BC2A04C0843111F4DF
S1131E700E94D2000E94B200089506970E94A50015
S1131E808BE10E94BB0080918602882339F4109272
S1131E90870285E0809386020E94C90080918602B1
S1131EA0815080938602809187028823D9F481E04F
S1131EB0809387020E94C90080918602843049F48D
S1131EC064E474E484E490E042E022E00E94172A8F
S1131ED03AC064E474E484E490E043E022E00E94C5
S1131EE0172A31C0813021F5109287020E94D20056
S1131EF080918602843071F464E474E484E490E0B4
S1131F0042E022E00E94172A809186028F5F80932C
S1131F10860219C064E474E484E490E043E022E0BF
S1131F200E94172A809186028150809386020BC0FA
S1131F30823049F480E00E94032960E07FEF8FE261
S1131F4090E00E94AD290E94B2000895CF93DF93E0
S1131F50EC0181E090E00E94A5008CE10E94BB00AE
S1131F6080918602882309F059C081E0809387021A
S1131F7060E070E08FEF90E00E94AD296FED70E0BB
S1131F8082E190E041E023E00E946C2A6FED70E072
S1131F9082E190E041E024E00E946C2A6FED70E061
S1131FA082E190E042E022E00E946C2A6FED70E052
S1131FB082E190E042E023E00E946C2A6FED70E041
S1131FC082E190E043E022E00E946C2A6FED70E031
S1131FD082E190E043E023E00E946C2A6FED70E020
S1131FE082E190E044E022E00E946C2A6FED70E010
S1131FF082E190E044E023E00E946C2A6FED70E0FF
S113200082E190E043E026E00E946C2A6FED70E0EC
S113201082E190E043E027E00E946C2A80918702ED
S1132020882339F40E94B200CE0105970E94A500CE
S113203021C08130F9F40E94B2008BE490E00E9448
S1132040A500CE01835590400E94DC0081E061E050
S11320500E94BC2A81E062E00E94BC2A81E063E025
S11320600E94BC2A81E064E00E94BC2A81E065E011
S11320700E94BC2A0E94B200DF91CF910895CF93B1
S1132080DF93EC0181E090E00E94A5008EE10E94C4
S1132090BB0080918602882309F059C081E08093B7
S11320A0870260E070E08FEF90E00E94AD296FED51
S11320B070E082E190E041E023E00E946C2A6FED41
S11320C070E082E190E041E024E00E946C2A6FED30
S11320D070E082E190E042E022E00E946C2A6FED21
S11320E070E082E190E042E023E00E946C2A6FED10
S11320F070E082E190E043E022E00E946C2A6FED00
S113210070E082E190E043E023E00E946C2A6FEDEE
S113211070E082E190E044E022E00E946C2A6FEDDE
S113212070E082E190E044E023E00E946C2A6FEDCD
S113213070E082E190E043E026E00E946C2A6FEDBB
S113214070E082E190E043E027E00E946C2A0E9464
S1132150B20080918702882329F4CE0105970E945A
S1132160A50031C08130F1F48BE490E00E94A50019
S1132170CE01815590400E94DC0080E061E00E9425
S1132180BC2A80E062E00E94BC2A80E063E00E94F6
S1132190BC2A80E064E00E94BC2A80E065E00E94E2
S11321A0BC2A11C0823039F4CE0101970E94A500E7
S11321B00E94D20008C0833031F4CE0101970E94FE
S11321C0A5000E94C9000E94B200DF91CF9108953A
S11321D0CF92DF92EF92FF92CF93DF9301970E9409
S11321E0A5008FE10E94BB0080918602882339F408
S11321F081E0809386021092890210928A02909163
S113220087029F5F9093870280918802823009F44D
S113221076C1833030F4882371F0813009F06BC2C9
S1132220BCC0843009F450C2843008F472C18530D3
S113223009F061C25BC280918602833009F463C0F5
S1132240843030F4813059F0823009F0A2C022C0C9
S1132250843009F487C0853009F09BC08CC0E8E263
S1132260F0E0E91BF109EE0FFF1FEE0FFF1FEE0F69
S1132270FF1FEF5FFE4F60817181828193816093C4
S11322808B0270938C0280938D0290938E020E9435
S1132290AD297FC060E070E0CB0141E022E00E9404
S11322A06C2A60E070E0CB0141E025E00E946C2ADA
S11322B060E070E0CB0144E024E00E946C2A60E01E
S11322C070E0CB0144E025E00E946C2A60E070E0FD
S11322D0CB0144E028E00E946C2A60E070E0CB016E
S11322E044E029E00E946C2A60E070E0CB0142E007
S11322F020E00E94172A60E070E0CB0143E021E077
S11323000E94172A46C081E062E00E94BC2A80E055
S113231063E00E94BC2A80918702E8E2F0E0E81BB7
S1132320F109EE0FFF1FEE0FFF1FEE0FFF1FEF5F10
S1132330FE4FC080D180E280F38060918B02709167
S11323408C0280918D0290918E02A70196010E94C9
S1132350DA2CC0928B02D0928C02E0928D02F09221
S11323608E0217C081E061E00E94BC2A80E064E034
S11323700E94BC2A0EC081E062E00E94BC2A80E078
S113238063E00E94BC2A81E065E00E94BC2A1092AE
S1132390860280E00E940329AEC1809186028330C8
S11323A009F463C0843030F4813059F0823009F08C
S11323B0A2C022C0843009F487C0853009F09BC0D4
S11323C08CC0E8E2F0E0E91BF109EE0FFF1FEE0F0D
S11323D0FF1FEE0FFF1FEF5FFE4F6081718182814F
S11323E0938160938B0270938C0280938D029093FF
S11323F08E020E94AD297FC060E070E0CB0141E015
S113240021E00E946C2A60E070E0CB0141E024E00E
S11324100E946C2A60E070E0CB0144E021E00E945D
S11324206C2A60E070E0CB0144E022E00E946C2A58
S113243060E070E0CB0144E023E00E946C2A60E09D
S113244070E0CB0144E024E00E946C2A60E070E07C
S1132450CB0142E021E00E94172A60E070E0CB014A
S113246043E020E00E94172A46C080E062E00E9418
S1132470BC2A81E063E00E94BC2A80918702E8E2E2
S1132480F0E0E81BF109EE0FFF1FEE0FFF1FEE0F48
S1132490FF1FEF5FFE4FC080D180E280F380609128
S11324A08B0270918C0280918D0290918E02A70113
S11324B096010E94DA2CC0928B02D0928C02E09298
S11324C08D02F0928E0217C080E061E00E94BC2A67
S11324D081E064E00E94BC2A0EC080E062E00E94B9
S11324E0BC2A81E063E00E94BC2A80E065E00E948F
S11324F0BC2A1092860280E00E940329FCC060E896
S113250070E08FEF90E00E94AD2980E00E940329E3
S1132510F2C00E942429882321F48FEF0E9403290A
S113252003C080E00E94032980918702882319F464
S11325300E94D200E0C0813031F460E070E0CB0151
S11325400E94AD29D8C08230C1F464E474E484E408
S113255090E00E943531E0918902FF27E7FDF09574
S1132560EE0FFF1FEE0FFF1FEF5FFE4F60817181C3
S1132570828193810E94F630BEC0833029F5E091B8
S11325808902FF27E7FDF095C1E0D1E0EE0FFF1FC0
S1132590EE0FFF1FEC0FFD1F60817181828193811B
S11325A00E94F63080918902992787FD9095880FC3
S11325B0991F880F991FC80FD91F688179818A8153
S11325C09B810E94353197C08430C1F4E091890227
S11325D0FF27E7FDF095EE0FFF1FEE0FFF1FEF5FE4
S11325E0FE4F60817181828193810E94353164E460
S11325F074E484E490E00E94F6307DC0853039F4C0
S113260064E474E484E490E00E94AD2974C08630EC
S1132610C1F464E474E484E490E00E94F630E09150
S11326208902FF27E7FDF095EE0FFF1FEE0FFF1F56
S1132630EF5FFE4F60817181828193810E94353109
S11326405AC0873029F5E0918902FF27E7FDF0950C
S1132650C1E0D1E0EE0FFF1FEE0FFF1FEC0FFD1FD7
S113266060817181828193810E94F6308091890218
S1132670992787FD9095880F991F880F991FC80F78
S1132680D91F688179818A819B810E94353133C049
S1132690883089F5E0918902FF27E7FDF095EE0F78
S11326A0FF1FEE0FFF1FEF5FFE4F6081718182817C
S11326B093810E94F63064E474E484E490E00E9420
S11326C035311092870217C0E0918902FF27E7FD98
S11326D0F095EE0FFF1FEE0FFF1FEF5FFE4F6081BF
S11326E07181828193810E94AD2905C060E070E010
S11326F0CB010E94AD2980918A02882331F4809114
S113270089028C5F8093890207C0813029F480910B
S11327108902845080938902809189028E353CF02D
S11327208DE58093890281E080938A0206C0882324
S113273024F41092890210928A020E94B200DF915E
S1132740CF91FF90EF90DF90CF9008950E94A50065
S113275080E20E94BB0080E00E94032960E070E0F8
S1132760CB010E94AD290E94B2000895C1E0D2E0DD
S113277013E004E00F2EF5E0FF2EF02D0F2EF6E00F
S1132780EF2EF02D0F2EF4E1DF2EF02D10928602A5
S1132790C0930001109287021092880210928A025C
S11327A0109289020E94C90086E792E00E94A50067
S11327B00E94B2008EE190E00E94A5000E94B20047
S11327C085E090E060E54C2F0E9406290E94B2004B
S11327D089EB90E00E94ED0082E791E00E94ED0019
S11327E082EA91E00E94ED008EE391E00E94ED0008
S11327F088EE92E00E94ED0088E491E00E94ED00F2
S11328008AE691E00E94ED008AE791E00E94ED00E3
S113281083E691E00E94ED0083E094E00E94ED00E5
S113282083EB91E00E94ED008CE991E00E94ED00C1
S113283083E291E00E94ED008AE093E00E94ED00C3
S113284083E491E00E94ED0082E791E00E94ED00B4
S11328508DE891E00E94ED008AE495E00E94010178
S11328608AE891E00E94010184E991E00E9401015B
S11328708BE391E00E94010180E293E00E94010158
S113288084EF90E00E94010188EC91E00E94010134
S113289080E991E00E9401018EE091E00E94010133
S11328A08AE694E00E9401018BE791E00E94010115
S11328B087E891E00E94010189E091E00E94010112
S11328C086E493E00E94010181E291E00E9401010B
S11328D089E891E00E9401018AE791E00E940101E8
S11328E088E595E00E94010184EB91E00E940101DA
S11328F08CE791E00E9401018BE291E00E940101CA
S11329008CE393E00E94010188E291E00E940101BE
S113291082EB90E00E9401018DEC90E00E940101A5
S113292088E791E00E94010180E591E00E940101A5
S11329308CE193E00E9401018DEF90E00E9401017F
S113294081E991E00E9401018FE891E00E94010178
S11329508FE391E00E9401018DE193E00E94010167
S113296082E291E00E94010180E791E00E9401016E
S113297088E991E00E94010180E592E00E94010152
S113298086EE92E00E94C10184E192E00E94C101BE
S113299081E491E00E94C1018DE291E00E94C101B5
S11329A08DE991E00E94C10188E591E00E94C10196
S11329B083E791E00E94C10187E691E00E94C10192
S11329C08BE791E00E94C10180E391E00E94C10184
S11329D08DE392E00E94C10185E292E00E94C10170
S11329E085ED91E00E94C1018CE691E00E94C10155
S11329F08CEE90E00E94C10183EC91E00E94C10141
S1132A0089E791E00E94C10181E091E00E94C10147
S1132A1083EE91E00E94C10189E691E00E94C10128
S1132A208DE191E00E94C1018EE891E00E94C10114
S1132A308EE791E00E94C10183E291E00E94C1010E
S1132A4080E991E00E94C1018DEA91E00E94C101F8
S1132A508FE091E00E94C10189E891E00E94C101E8
S1132A6086E891E00E94C1018DE191E00E94C101DC
S1132A708DE791E00E94C10183EB91E00E94C101C6
S1132A8080EF90E00E94C10188E691E00E94C101BC
S1132A9088ED90E00E94C1018AE191E00E94C101A9
S1132AA08AE191E00E94C10183EA91E00E94C101A0
S1132AB080E791E00E94C10188E191E00E94C10198
S1132AC083EB91E00E94C1018CE691E00E94C10178
S1132AD08AE291E00E94C10189E991E00E94C1016A
S1132AE089E891E00E94C10185E291E00E94C10160
S1132AF089E093E00E94C10182E691E00E94E50230
S1132B008EEB91E00E94E50289E691E00E94E502E5
S1132B1086E491E00E94E5028BE193E00E94E502E5
S1132B208BE091E00E94E50283EA91E00E94E502D5
S1132B3086E691E00E94E50288E691E00E94E502C3
S1132B408BEE93E00E94E5028CEA91E00E94E5029C
S1132B5082E991E00E94E5028FE491E00E94E5029F
S1132B608EEF92E00E94E50283E191E00E94E5028B
S1132B708EE891E00E94E50281EA91E00E94E5027C
S1132B808AEF93E00E94E502C093870284E791E014
S1132B900E9404030E94B2008CE091E00E940403AE
S1132BA00E94B20081E191E00E9404030E94B200FD
S1132BB080E391E00E9404030E94B2008EEF90E053
S1132BC00E9404030E94B2008DE191E00E9404037C
S1132BD00E94B2008FEC90E00E940403D09387021D
S1132BE00E94B20083E391E00E9404030E94B200B9
S1132BF08CE191E00E9404030E94B2008CE891E011
S1132C000E9404030E94B20085E691E00E9404033E
S1132C100E94B20085E391E00E9404030E94B20086
S1132C208AEE91E00E940403C09387020E94B200DE
S1132C3081E591E00E9404030E94B20083E091E0E8
S1132C400E9404030E94B2008CE091E00E940403FD
S1132C500E94B20085EB90E00E9404030E94B2003F
S1132C608BE791E00E9404030E94B2008FE091E0A0
S1132C700E9404030E94B20084EF90E00E940403C7
S1132C800E94B2008EEB90E00E940403D09387026E
S1132C900E94B20081E791E00E9404030E94B20006
S1132CA087E391E00E9404030E94B20088E691E069
S1132CB00E9404030E94B2008CE991E00E94040384
S1132CC00E94B2008DEF90E00E9404030E94B200C3
S1132CD08EE391E00E940403109387020E94B200E5
S1132CE088E192E00E9404030E94B20081E391E033
S1132CF00E9404030E94B20088E191E00E94040350
S1132D000E94B20084EF90E00E9404030E94B2008B
S1132D108DE191E00E9404030E94B20084EF90E0F0
S1132D200E9404030E94B2008CE191E00E9404031B
S1132D300E94B2008AE091E00E940403D0938702CB
S1132D400E94B2008EE291E00E9404030E94B2004D
S1132D5088E890E00E9404030E94B20088E990E0B1
S1132D600E9404030E94B20086E791E00E940403DB
S1132D700E94B2008CE791E00E9404030E94B2001A
S1132D8084E191E00E9404030E94B2008EE092E08C
S1132D900E940403C09387020E94B2008DE391E075
S1132DA00E9404030E94B2008CE091E00E9404039C
S1132DB00E94B20083E291E00E9404030E94B200E8
S1132DC086EB90E00E9404030E94B20086E691E044
S1132DD00E9404030E94B20084E091E00E94040374
S1132DE00E94B2008FE091E00E9404030E94B200AE
S1132DF08DEC90E00E940403D09387020E94B200FD
S1132E008EE591E00E9404030E94B20089E990E0FB
S1132E100E9404030E94B20084E890E00E9404032C
S1132E200E94B20087E191E00E9404030E94B20074
S1132E308FE790E00E9404030E94B20085E791E0CE
S1132E400E9404030E94B2008DE191E00E940403F9
S1132E500E94B20083E291E00E9404030E94B20047
S1132E608AEC90E00E9404030E94B20087E591E09E
S1132E700E94A60386E591E00E94A60310938702B0
S1132E8087EB91E00E94A6030093870289E792E012
S1132E900E94A603109387028CEC91E00E94A60383
S1132EA0009387028FE592E00E94A603C0938702F5
S1132EB08EE491E00E94A60382EB91E00E94A603B7
S1132EC085E391E00E94A60387EA91E00E94A603AD
S1132ED087E691E00E94A60384E691E00E94A6039F
S1132EE0109387028EEB91E00E94A6030093870261
S1132EF08AE692E00E94A6031093870285ED91E092
S1132F000E94A603009387028AE492E00E94A6032B
S1132F10C09387028DE691E00E94A6038DEC91E0B8
S1132F200E94A6038AE191E00E94A603F092870220
S1132F3081E594E00E94A60385E390E06FE040E021
S1132F400E940629D093870287E492E00E945A04E3
S1132F50C093870285EC91E00E94680480E991E0C7
S1132F600E94680484E191E00E94680488EA91E088
S1132F700E94680482E791E00E94680488E291E07C
S1132F800E9468048FE991E00E94680482E891E05D
S1132F900E9468048AE091E00E9468048FEE91E048
S1132FA00E9468048CE392E00E946804D093870234
S1132FB082EC91E00E946804C093870284E891E067
S1132FC00E9468048DE091E00E94680486E991E023
S1132FD00E94680483E891E00E9468048CE291E016
S1132FE00E9468048AEA91E00E94680486E791E0FE
S1132FF00E94680480E291E00E94680484EC91E0FD
S11330000E94680489E691E00E9468048EE091E0E1
S11330100E946804D09387028DEA91E00E946804BC
S1133020C093870280E891E00E94680485E191E002
S11330300E94680485E991E00E94680480E991E0B7
S11330400E94680488E191E00E94680482E891E0AB
S11330500E94680482EC91E00E9468048EE091E092
S11330600E9468048CE591E00E946804D093870272
S11330708BED92E00E946804C09387028AEB91E092
S11330800E946804D093870281E891E00E9468045A
S113309084E091E00E9468048CE691E00E94680458
S11330A087EC91E00E94680480EF90E00E9468043D
S11330B087EB91E00E9468048BE891E00E94680429
S11330C083E191E00E946804C093870287EA90E05C
S11330D00E94680488E295E00E9487058AE598E2E8
S11330E00E9487058CEA90E00E9487058CE091E0BD
S11330F00E9487058BE491E00E94870585E191E0B9
S11331000E94870583E391E00E94870580E694E0AE
S11331100E94BD0587E191E00E94C5058AEB90E01D
S11331200E94C50589EF90E00E94C50582EE90E0FB
S11331300E94C50586EE90E00E94C50586EE90E0EB
S11331400E94C50584E690E00E94C50583E890E0EE
S11331500E94C50583EF90E00E94C50582EE90E0D1
S11331600E94C50582EE90E00E94C5058BEE90E0BA
S11331700E94C5058FEE90E00E94C5058EEE90E09A
S11331800E94C5058AED90E00E94C50584EF90E099
S11331900E94C50589ED90E00E94C50581EF90E08D
S11331A00E94C50585EF90E00E94C50588EE90E079
S11331B00E94C5058CEE90E00E94C50588E790E06A
S11331C00E94C5058DE690E00E94C50588EE90E05A
S11331D00E94C50580E390E00E94C50586E490E066
S11331E00E94C50580E790E00E94C5058EEE90E040
S11331F00E94C50584EF90E00E94C5058FED90E024
S11332000E94C50589EE90E00E94C5058EED90E010
S11332100E94C50586EF90E00E94C50583E690E014
S11332200E94C5058FE690E00E94C5058CEF90E0F2
S11332300E94C50581E690E00E94C5058FE790E0F5
S11332400E94C50586EE91E00E94770688EE90E024
S11332500E94770685EF90E00E9477068BEE90E05F
S11332600E94770683ED90E00E9477068CED90E053
S11332700E94770689ED90E00E9477068CE091E049
S11332800E9477068CEC90E00E94770684EE90E032
S11332900E94770686E091E00E94770680E091E044
S11332A00E94770686EB90E00E94770682E091E028
S11332B00E94770682ED90E00E94770685EF90E009
S11332C00E9477068CEF90E00E9477068BEE90E0E8
S11332D00E9477068CEF90E00E9477068EE690E0DD
S11332E00E94770680E890E00E94770682ED90E0E5
S11332F00E94770685EF90E00E94770688ED90E0C3
S11333000E94770685E191E00E94770682EE90E0C4
S11333100E947706F092870280EE90E00E94770682
S1133320E09287028AEE90E00E94770685EE92E0B2
S11333300E942B078EEC90E00E9435078EE091E00E
S11333400E94350789ED90E00E94350784ED90E0F6
S11333500E9435078BE091E00E94350783ED90E0F1
S11333600E94350784E191E00E9435078FED90E0DB
S11333700E94350784EE90E00E9435078AE091E0D0
S11333800E94350784EF90E00E94350780EC90E0BE
S11333900E94350784EF90E00E9435078BEF90E0A0
S11333A00E94350786EE90E00E94350782EE90E099
S11333B00E94350787EE90E00E94350781E091E096
S11333C00E94350781EF90E00E94350785EE90E07A
S11333D00E94350784E091E00E94350780EF90E079
S11333E00E94350783EF90E00E94350781EF90E05B
S11333F00E94350784ED90E00E94350788E091E053
S11334000E9435078EEF90E00E94350780E291E03C
S11334100E9435078EEC90E00E9435078AEB91E01C
S11334200E94350785EF90E00E94350781E491E022
S11334300E94BF0782EC91E00E94BF078AEE91E0F0
S11334400E94BF0780EE91E00E94BF0789E091E0EF
S11334500E94BF078EEE90E00E94BF0784EF91E0C8
S11334600E94BF0781E292E00E94BF0780EB91E0D7
S11334700E94BF0786E291E00E94BF0783EF90E0BD
S11334800E94BF078CEE90E00E94BF0787EC90E09B
S11334900E94BF078FE091E00E94BF0785EE90E095
S11334A00E94BF0780E391E00E94BF0788EA90E092
S11334B00E94BF0787E191E00E94BF078FEE90E072
S11334C00E94BF0782E591E00E94BF078EE890E06A
S11334D00E94BF0782E091E00E94BF078CEF90E05A
S11334E00E94BF0783E291E00E94BF0780EB90E057
S11334F00E94BF0781E091E00E94BF078AEB90E041
S11335000E94BF0785E391E00E94BF0785E990E030
S11335100E94BF0780E590E00E94BF0780E091E031
S11335200E94BF078EED90E00E94BF078AE091E001
S11335300E94BF078EEE90E00E94BF078AED90E0E4
S11335400E94BF0789E990E00E94BF0788E690E0E7
S11335500E94BF0781E191E00E94BF0782ED90E0E5
S11335600E94BF0784E091E00E94BF0783EE90E0D1
S11335700E94BF0787EF90E00E94BF078FEE90E0A4
S11335800E94BF0786EF90E00E94BF0783EE90E0A1
S11335900E94BF0785EE90E00E94BF078DEF90E088
S11335A00E94BF078FE091E00E94BF078BED90E07F
S11335B00E94BF0782EF90E00E94BF078DE091E078
S11335C00E94BF0787EF90E00E94BF0783EC90E062
S11335D00E94BF0786E391E00E94BF0787EA90E05C
S11335E00E94BF078EE990E00E94BF078AE990E03D
S11335F00E94BF0789ED90E00E94BF0782E091E03E
S11336000E945B088DEE90E00E945B0882EF90E0E0
S11336100E945B0885E191E00E945B0883EF90E0E3
S11336200E945B0884EB90E00E945B088AE291E0D0
S11336300E945B0885EF90E00E945B0888E091E0BF
S11336400E945B0888EB90E00E945B0887E191E0B0
S11336500E945B0887EE90E00E945B0884E091E0A2
S11336600E945B0889EB90E00E945B0881EF90E088
S11336700E945B088DE890E00E94E7088EEB90E0E2
S11336800E94E70888EB91E00E94E70885ED90E04E
S11336900E94E70884EE90E00E94E70888E391E046
S11336A00E94E70880ED90E00E94E7088FE691E031
S11336B00E94E70884E091E00E94E70885E191E038
S11336C00E94E70880ED90E00E94E70883EE90E016
S11336D00E94E70881EC90E00E94E70887E091E00F
S11336E00E94E70888EE90E00E94E70880E991E0F4
S11336F00E94E7088BE990E00E94E70885EF90E0DC
S11337000E94E7088EEF90E00E94E70884E391E0CE
S11337100E94E70882E291E00E94E7088CE591E0CC
S11337200E94E70880E991E00E94E70888EC90E0B5
S11337300E94E7088FEE90E00E94E70884E990E099
S11337400E94E7088DE991E00E94E7088FE391E089
S11337500E94E70883EE90E00E94E7088DE092E083
S11337600E94E7088CEC91E00E94E70885ED91E067
S11337700E94E70883E292E00E94E70883E291E076
S11337800E94E7088CEC90E00E94E70882E291E056
S11337900E94A0098BEC90E00E94A00989E091E0CE
S11337A00E94A00984EF90E00E94A0098EED90E0B1
S11337B00E94A0098BEE90E00E94A00982E091E0B3
S11337C00E94A00985EF90E00E94A00984EC90E09B
S11337D00E94A00982ED90E00E94A00982E291E09B
S11337E00E94A00983EF90E00E94A0098DEE90E072
S11337F00E94A00988EB91E00E94A0098AE391E06D
S11338000E94A00983EF90E00E94A00981EB90E060
S11338100E94A00986EF90E00E94A0098BEE90E040
S11338200E94A00989E091E00E94A00988EC90E040
S11338300E94A00984E191E00E94A00982ED90E039
S11338400E94A00986EE90E00E94A0098AE191E01E
S11338500E94A0098AED90E00E94A00985ED90E005
S11338600E94A0098EE191E00E94A0098FEC90E0F3
S11338700E94A0098CEF90E00E94A00986EE90E0DF
S11338800E94A00983E091E00E94A00987EC90E0E7
S11338900E94A00985E091E00E94A00982ED90E0D9
S11338A00E94A00984EF90E00E94A00989EF90E0B3
S11338B00E94A0098EE091E00E94A00981EE90E0B0
S11338C00E94A0098CE691E00E94A0098EE590E098
S11338D00E94A0098FE091E00E94A0098AEF90E085
S11338E00E94A00982EF90E00E94A0098BEA91E077
S11338F00E94A00986E291E00E94A0098DEE90E06A
S11339000E94A0098AEC90E00E94A0098DEF90E04B
S11339100E94A00988EE90E00E94A00985ED90E045
S11339200E94A0098CE291E00E94A00989E091E044
S11339300E94A00988ED90E00E94A0098EEF90E01B
S11339400E94A00989EA90E00E94A00984E191E024
S11339500E94A00983EE90E00E94A0098DEF90E000
S11339600E94A00982EF90E00E94A0098AE091E001
S11339700E94A00987EF90E00E94A00984E391E0EF
S11339800E94A0098CE690E00E94A00983E591E0E2
S11339900E94A00988EB90E00E94A00986EF90E0C5
S11339A00E94A00988E091E00E94A00980E091E0D3
S11339B00E94A0098CED90E00E94A00982E491E0AD
S11339C00E94A0098AE890E00E94A00982E291E0A6
S11339D00E94A00985EE90E00E94A00985E291E092
S11339E00E94A0098AEE90E00E94A00984EF90E072
S11339F00E94A00988EF90E00E94A0098AEF90E05D
S1133A000E94A00981EE90E00E94A0098CE091E060
S1133A100E94A00987EE90E00E94A00982E091E054
S1133A200E94A00983EE90E00E94A00980E191E049
S1133A300E94A00982E890E00E94A00989E691E032
S1133A400E94A00986EF90E00E94A00989EF90E00F
S1133A500E94A0098EED90E00E94A00986E894E0FF
S1133A600E942E0AC09387028EEA90E00E94380AD0
S1133A70109287028FE790E00E94380A84E890E071
S1133A800E94380A83E790E00E94380A8BE690E0AF
S1133A900E94380A8EE690E00E94380A85E690E09B
S1133AA00E94380A82E890E00E94380A87E790E092
S1133AB00E94380A8FE490E00E94380A85E690E07C
S1133AC00E94380AC093870288ED90E00E94380A69
S1133AD01092870285ED90E00E94380AC093870215
S1133AE088ED90E00E94380A1092870284EF90E0FB
S1133AF00E94380AC093870285ED90E00E94380A3C
S1133B001092870282EC90E00E94380A8AED90E0DD
S1133B100E94380AC093870285EC90E00E94380A1C
S1133B201092870282EF90E00E94380AC0938702C5
S1133B308BEB90E00E94380A109287028FEE90E09F
S1133B400E94380A89E790E00E94380A87E291E0EF
S1133B500E94380A8EEC90E00E94380A83EE90E0CE
S1133B600E94380A8EEA90E00E94380AC0938702C5
S1133B7080EF90E00E94380A109287028FEC90E068
S1133B800E94380AC093870280ED90E00E94380AB0
S1133B90109287028AEB90E00E94380AC093870251
S1133BA08EEF90E00E94380A86ED90E00E94380A79
S1133BB01092870282EE90E00E94380AC093870236
S1133BC081ED90E00E94380A109287028CEF90E019
S1133BD00E94380AC09387028AEA90E00E94380A59
S1133BE0109287028AEF90E00E94380A8AEB90E0F4
S1133BF00E94380A85EE90E00E94380A89EE90E02F
S1133C000E94380A8EEC90E00E94380A82EC90E020
S1133C100E94380AC093870282EE90E00E94380A1C
S1133C201092870286EC90E00E94380AC0938702C3
S1133C308DED90E00E94380A1092870289EB90E0A3
S1133C400E94380AC093870281EF90E00E94380AEC
S1133C5087ED90E00E94380A1092870286ED90E08A
S1133C600E94380AC09387028AEC90E00E94380AC6
S1133C701092870280EF90E00E94380AC093870276
S1133C8081EC90E00E94380A1092870282EF90E063
S1133C900E94380A8CEB90E00E94380A83EF90E08F
S1133CA00E94380A80EC90E00E94380A81EF90E08C
S1133CB00E94380A81ED90E00E94380AC09387027E
S1133CC080EE90E00E94380A1092870282EE90E023
S1133CD00E94380AC09387028AEB90E00E94380A57
S1133CE01092870288EE90E00E94380AC0938702FF
S1133CF080ED90E00E94380A8DEC90E00E94380A32
S1133D001092870289EA90E00E94380AC0938702E1
S1133D108CE091E00E94380A1092870284ED90E0D2
S1133D200E94380A82EA90E00E94380A8CE091E00E
S1133D300E94AE0AC093870288ED90E00E94AE0A0A
S1133D401092870288EE90E00E94AE0AC093870228
S1133D5088EB90E00E94AE0A1092870288ED90E012
S1133D600E94AE0AC09387028AEB90E00E94AE0ADA
S1133D70109287028FEF90E00E94AE0AC0938702F0
S1133D8085ED90E00E94AE0A1092870285EE90E0E5
S1133D900E94AE0AC09387028EEB90E00E94AE0AA6
S1133DA0109287028AED90E00E94AE0AC0938702C7
S1133DB08EED90E00E94AE0A1092870284EE90E0AD
S1133DC00E94AE0AC093870289EB90E00E94AE0A7B
S1133DD0109287028DEF90E00E94AE0AC093870292
S1133DE08BEB90E00E94AE0A1092870287EC90E081
S1133DF00E94AE0AC09387028FED90E00E94AE0A43
S1133E00109287028BEE90E00E94AE0AC093870264
S1133E1085EB90E00E94AE0A109287028EED90E04E
S1133E200E94AE0AC093870289EC90E00E94AE0A19
S1133E301092870286ED90E00E94AE0AC09387023A
S1133E408CEB90E00E94AE0A1092870285EE90E01F
S1133E500E94AE0AC09387028BEB90E00E94AE0AE8
S1133E601092870282E091E00E94AE0AC09387021A
S1133E7086EB90E00E94AE0A1092870286EE90E0F4
S1133E800E94AE0AC093870283EE90E00E94AE0ABD
S1133E90109287028EE091E00E94AE0AC0938702DE
S1133EA086EC90E00E94AE0A1092870287EE90E0C2
S1133EB00E94AE0AC09387028BEA90E00E94AE0A89
S1133EC01092870284EF90E00E94AE0AC0938702AA
S1133ED083EB90E00E94AE0A1092870280E091E0AA
S1133EE00E94AE0AC09387028FEB90E00E94AE0A54
S1133EF0109287028CE091E00E94AE0AC093870280
S1133F0086E890E00E94AE0A1092870282E191E076
S1133F100E94AE0AC093870288E990E00E94AE0A2C
S1133F201092870287EE90E00E94AE0AC093870247
S1133F3084EC90E00E94AE0A109287028CEC90E030
S1133F400E94AE0AC093870281E091E00E94AE0A0B
S1133F50109287028BED90E00E94AE0AC093870214
S1133F6087EB90E00E94AE0A109287028DEF90E0FA
S1133F700E94AE0AC093870289EA90E00E94AE0ACA
S1133F801092870287E091E00E94AE0AC0938702F4
S1133F9080EC90E00E94AE0A1092870284EE90E0DA
S1133FA00E94AE0AC09387028AEB90E00E94AE0A98
S1133FB01092870283EE90E00E94AE0AC0938702BB
S1133FC08FEB90E00E94AE0A1092870286EF90E099
S1133FD00E94AE0AC093870286EA90E00E94AE0A6D
S1133FE01092870281EF90E00E94AE0AC09387028C
S1133FF080EC90E00E94AE0A1092870288EF90E075
S11340000E94AE0AC093870281ED90E00E94AE0A3E
S11340101092870287EF90E00E94AE0AC093870255
S113402081EC90E00E94AE0A8EEE90E00E94330B89
S113403086EB90E00E94330B85EE90E00E94330BF8
S113404084EB90E00E94330B86E990E00E94330BEE
S113405089E590E00E94330B88EB90E00E94330BDB
S113406085EF90E00E94330B8EE990E00E94330BC1
S11340708EE191E00E94330B80ED90E00E94330BBF
S11340808EEB90E00E94330B8DEC90E00E94330B9A
S113409087EE90E00E94330B8EEC90E00E94330B8D
S11340A081ED90E00E94330B8EEE90E00E94330B82
S11340B087ED90E00E94330B85EC90E00E94330B77
S11340C086EC90E00E94330B83ED90E00E94330B6A
S11340D089EA90E00E94330B8CEA90E00E94330B53
S11340E08AE890E00E94330B81EC90E00E94330B4D
S11340F087E990E00E94330B88E291E00E94330B41
S113410088EE90E00E94330B88EB90E00E94330B22
S11341108FEB90E00E94330B89EF90E00E94330B09
S113412089EE90E00E94330B86EF90E00E94330BFF
S113413084EB90E00E94030C8CED90E00E94030C51
S113414084EA90E00E94030C8FED90E00E94030C3F
S113415085EE90E00E94030C80ED90E00E94030C39
S113416083EB90E00E94030C83EE90E00E94030C2A
S113417087EC90E00E94030C80ED90E00E94030C19
S113418085EE90E00E94030C85ED90E00E94030C04
S113419089EF90E00E94030C85EC90E00E94030CF0
S11341A08AEF90E00E94030C81EC90E00E94030CE3
S11341B087ED90E00E94030C89ED90E00E94030CCF
S11341C08CEB90E00E94030C87EF90E00E94030CBC
S11341D08DEC90E00E94030C89EE90E00E94030CA9
S11341E082EC90E00E94030C89EE90E00E94030CA4
S11341F084EA90E00E94030C8BE790E00E94030C99
S113420085E890E00E94030C86EA90E00E94030C8B
S113421085E690E00E94030C8DE890E00E94030C78
S113422087EC90E00E94030C85EF90E00E94030C61
S113423084ED90E00E94030C81EF90E00E94030C57
S11342408BEB90E00E94030C87EC90E00E94030C3F
S113425089EC90E00E94030C83EF90E00E94030C31
S11342608AEA90E00E94030C86E091E00E94030C2D
S113427087EA90E00E94030C8EED90E00E94030C0C
S113428082EC90E00E94030C80E091E00E94030C19
S11342908BED90E00E94030C8DED90E00E94030CE6
S11342A08FEB90E00E94030C8FEB90E00E94030CD4
S11342B08AED90E00E94030C81E291E00E94030CDD
S11342C085EA90E00E94030C86EF90E00E94030CC4
S11342D084ED90E00E94030C89EE90E00E94030CB0
S11342E087E990E00E94030C86EF90E00E94030CA3
S11342F08FEB90E00E94030C8AEE90E00E94030C86
S113430086EB90E00E94030C8CED90E00E94030C7D
S11343108CEF90E00E94030C8BEE90E00E94030C63
S113432087ED90E00E94030C87ED90E00E94030C5F
S113433089EC90E00E94030C83ED90E00E94030C52
S11343408FEB90E00E94030C88EE90E00E94B80D81
S11343508BEB90E00E94B80D87EE90E00E94B80DC0
S113436082EB90E00E94B80D81EE90E00E94B80DBF
S113437089EC90E00E94B80DC093870283E291E03B
S11343800E94B80D8AE791E00E94B80D87ED90E095
S11343900E94B80D1092870284EF90E00E94B80D3D
S11343A08CED90E00E94B80D83ED90E00E94B80D72
S11343B084ED90E00E94B80D8EED90E00E94B80D5F
S11343C087ED90E00E94B80D8DEB90E00E94B80D4F
S11343D081ED90E00E94B80D84EE90E00E94B80D4B
S11343E08BED90E00E94B80D8EEB90E00E94B80D2A
S11343F08FEB90E00E94B80DC093870284E091E0B7
S11344000E94B80D8EE791E00E94B80D8DED90E00A
S11344100E94B80D1092870289EE90E00E94B80DB8
S113442080EB90E00E94B80D8EEF90E00E94B80DF2
S113443081EC90E00E94B80D8AEF90E00E94B80DE4
S113444089EC90E00E94B80D8FEE90E00E94B80DC8
S113445084EB90E00E94B80D8FEE90E00E94B80DBE
S113446089EC90E00E94B80D80E091E00E94B80DC4
S113447085EB90E00E94B80D83ED90E00E94B80DAA
S113448086EC90E00E94B80D8FEE90E00E94B80D8B
S113449086EA90E00E94B80D8BEF90E00E94B80D80
S11344A08DED90E00E94B80D8AEC90E00E94B80D6A
S11344B08FEC90E00E94B80D85E091E00E94B80D69
S11344C081EA90E00E94B80D8AED90E00E94B80D58
S11344D086EB90E00E94B80D81EA90E00E94B80D4E
S11344E08AE491E00E94B80D82E791E00E94B80D41
S11344F08DE191E00E94B80D8CEA90E00E94B80D25
S1134500C093870287EF90E00E94B80D84EC90E09E
S11345100E94B80D1092870282EE90E00E94B80DBE
S11345208FED90E00E94B80D8BED90E00E94B80DE5
S11345308DED90E00E94B80D8CE991E00E94B80DD9
S11345408AED90E00E94B80D8EED90E00E94B80DC7
S113455088EB90E00E94B80D88E091E00E94B80DCD
S113456080EB90E00E94B80D8CEE90E00E94B80DB4
S11345708CEE90E00E94B80DC093870283EB90E02C
S11345800E94B80D8BED90E00E94B80D8AED90E08A
S11345900E94B80D109287028AEC90E00E94B80D38
S11345A08DED90E00E94B80D8FEF90E00E94B80D61
S11345B08CED90E00E94B80D81ED90E00E94B80D62
S11345C088EF90E00E94B80D82EA90E00E94B80D56
S11345D080EF90E00E94B80D81ED90E00E94B80D4C
S11345E08DED90E00E94B80D8AEC90E00E94B80D29
S11345F085EC90E00E94B80DC093870281EA90E0B8
S11346000E94B80D109287028CE291E00E94B80DCE
S1134610C09387028DEA90E00E94B80D80ED90E08F
S11346200E94B80D109287028BEE90E00E94B80DA4
S11346308FEB90E00E94B80D89ED90E00E94B80DD8
S113464088ED90E00E94B80D89ED90E00E94B80DCD
S11346508BEC90E00E94B80D8EED90E00E94B80DB6
S11346608BEB90E00E94B80D87EE90E00E94B80DAD
S11346708FEB90E00E94B80D83E091E00E94B80DAA
S113468087EC90E00E94B80D8EED90E00E94B80D8A
S113469089EA90E00E94B80D8CED90E00E94B80D7C
S11346A086ED90E00E94B80D86EF90E00E94B80D70
S11346B087EB90E00E94B80D8DED90E00E94B80D5C
S11346C088ED90E00E94B80D83EE90E00E94B80D52
S11346D08DEE90E00E94B80D84EC90E00E94B80D3D
S11346E088EC90E00E94B80D88EC90E00E94B80D30
S11346F081E091E00E94B80D8DEB90E00E94B80D2E
S113470080EE90E00E94B80DC093870286EE90E0A0
S11347100E94B80D83EE90E00E94B80D86EC90E004
S11347200E949A0E86ED90E00E949A0E8AEC90E028
S11347300E949A0E8AED90E00E949A0E8FEC90E00F
S11347400E949A0E89EB90E00E949A0E82EF90E00C
S11347500E949A0E88EB90E00E949A0E84E191E008
S11347600E949A0E8FED90E00E949A0E81EC90E0E8
S11347700E949A0E8DEF90E00E949A0E82EB90E0D8
S11347800E949A0E82ED90E00E949A0E8EEB90E0C9
S11347900E949A0E8DEE90E00E949A0E8BEB90E0B0
S11347A00E949A0E86EE90E00E949A0E8EED90E0A2
S11347B00E949A0E83ED90E00E949A0E80EE90E0A3
S11347C00E949A0E8DEB90E00E949A0E83EE90E088
S11347D00E949A0E8AEE90E00E949A0E85ED90E077
S11347E00E949A0E83ED90E00E949A0E8FEB90E067
S11347F00E949A0ED09287028BE491E00E949A0E56
S113480080E894E00E949A0E88E090E060E54C2FE6
S11348100E94062985E691E00E943D0F8FE791E012
S11348200E943D0F88E591E00E943D0F87EA91E0E8
S11348300E943D0F81E791E00E943D0F8DE991E0D8
S11348400E943D0F83E891E00E943D0F80EA91E0D1
S11348500E943D0F84E891E00E943D0F8AE591E0BB
S11348600E943D0F83EA91E00E943D0FD09387029E
S113487080EA91E00E943D0F82E193E00E943D0FA7
S113488083E591E00E94A60F1092870289EB91E0E4
S11348900E94A60FC093870286E591E00E94A60FAE
S11348A0109287028CE891E00E94A60FC0938702C1
S11348B08EE991E00E94A60F87E491E00E94A60F82
S11348C081E791E00E94A60F8FE990E00E94A60F75
S11348D01092870286E591E00E94A60FC09387029A
S11348E084E291E00E94A60F1092870282EE91E08A
S11348F00E94A60FC093870284E691E00E94A60F4F
S11349001092870285EA91E00E94A60FC093870265
S113491087E591E00E94A60F82E891E00E94A60F2D
S113492081E191E00E94A60F89EE90E00E94A60F1B
S11349301092870284EF90E00E94A60FC093870232
S11349408FE991E00E94A60F1092870281E891E01E
S11349500E94A60FC093870287E691E00E94A60FEB
S11349601092870289EB91E00E94A60FC093870200
S113497086E791E00E94A60F109287028EE092E0F3
S11349800E94A60FC09387028FEB90E00E94A60FAF
S11349901092870288E192E00E94A60FC0938702DA
S11349A082E691E00E94A60F1092870282EA91E0CB
S11349B00E94A60FC09387028FE191E00E94A60F88
S11349C08BEA92E00E94A60F80EA90E00E94A60F74
S11349D081E091E00E94A60F81E790E00E94A60F7B
S11349E087E091E00E94A60F89E790E00E94A60F5D
S11349F080EA91E00E943F1080E291E00E943F1023
S1134A00109287028BEE91E00E943F10C0938702C0
S1134A1081E391E00E943F101092870288EC91E0BC
S1134A200E943F10C09387028AE491E00E943F10E5
S1134A308BE591E00E943F108EEF90E00E943F10C2
S1134A4087E091E00E943F101092870284E891E091
S1134A500E943F10C093870286EF90E00E943F10AF
S1134A60109287028BE991E00E943F10C093870265
S1134A7085EA91E00E943F10109287028BE991E051
S1134A800E943F10C09387028CE591E00E943F1082
S1134A9081E891E00E943F108CE091E00E943F1079
S1134AA084E391E00E943F101092870289E091E034
S1134AB00E943F10C093870280E391E00E943F1060
S1134AC01092870288ED91E00E943F10C093870204
S1134AD081E591E00E943F101092870283EA91E001
S1134AE00E943F10C093870284E591E00E943F102A
S1134AF01092870287EA91E00E943F10C0938702D8
S1134B0081E991E00E943F101092870281E691E0D2
S1134B100E943F10C093870286E891E00E943F10F4
S1134B201092870286E691E00E943F10C0938702AC
S1134B3085E891E00E943F10109287028AE991E093
S1134B400E943F10D093870283E991E00E943F10B6
S1134B50109387028EE991E00E943F1080ED92E06D
S1134B600E943F10109288021092870280E991E01F
S1134B700E94E81080EA91E00E94E81080EE90E044
S1134B800E94E81087E691E00E94E8108DE691E02B
S1134B900E94E81085E193E00E94E8108FE991E01B
S1134BA00E94E8108CE990E00E94E8108AE891E005
S1134BB00E94E81084E891E00E94E8108BE791E0FD
S1134BC00E94E8108AE091E00E94E8108AE491E0F3
S1134BD00E94E8108FE791E00E94E81088EC90E0D2
S1134BE00E94E81085E492E00E94E81089EA90E0CF
S1134BF00E94E8108DE391E00E94E81087EC91E0B8
S1134C000E94E81088E891E00E94E81087EE90E0A6
S1134C100E94E8108FE691E00E94E81080E492E0A0
S1134C200E94E8108DEA91E00E94E81086E691E087
S1134C300E94E81084E791E00E94E81085E891E082
S1134C400E94E81080E691E00E94E8108BEF90E06B
S1134C500E94E81085E891E00E94E8108AEF90E055
S1134C600E94E81089EA90E00E94E81084E890E04D
S1134C700E94E810C09388021092870288E392E0B1
S1134C800E94E81084EC90E00E94E81082E691E033
S1134C900E94E81085EA91E00E94E81087E591E01F
S1134CA00E94E81089E091E00E94E81087E891E012
S1134CB00E94E8108BE193E00E94E81081E791E004
S1134CC00E94E81084E990E00E94E81089E991E0EC
S1134CD00E94E81085E791E00E94E810D0938802D2
S1134CE08BE491E00E94E81085E391E00E94E810D3
S1134CF0C09388028AE195E00E94E8108EED90E06E
S1134D000E94E81082EA90E00E94E81082E791E0B5
S1134D100E94E8108DE691E00E94E81081E491E0A1
S1134D200E94E81083E092E00E94E81088ED90E091
S1134D300E94E8108CEE92E00E94E8108EE292E06D
S1134D400E94E8108BE691E00E94E81080E991E06F
S1134D500E94E81082E791E00E94E8108EE891E05A
S1134D600E94E81082EF92E00E94E81010938802FB
S1134D701092870283E393E00E94E81086E791E0B3
S1134D800E94E81081E791E00E94E81081E891E038
S1134D900E94E81088EC91E00E94E81084E491E01D
S1134DA00E94E8108CE991E00E94E81088EF90E0FE
S1134DB00E94E81085EF90E00E94E81084E291E000
S1134DC00E94E8108FE791E00E94E81083EA91E0E6
S1134DD00E94E8108BE691E00E94E81083E991E0DC
S1134DE00E94E8108FE991E00E94E8108EE491E0BF
S1134DF00E94E8108FE191E00E94E81089EF90E0B2
S1134E000E94E81087E091E00E94E8108DE791E0AD
S1134E100E94E81087E191E00E94E81085EB91E0A0
S1134E200E94E81081EA91E00E94E81082E691E095
S1134E300E94E8108DE991E00E94E81085E991E074
S1134E400E94E81081EA91E00E94E81082E191E07A
S1134E500E94E8108EE391E00E94E81089EE91E050
S1134E600E94E81086ED91E00E94E8108BE191E049
S1134E700E94E81083EA90E00E94E8108AEB90E038
S1134E800E94E81087E990E00E94E81084E191E034
S1134E900E94E8108EE890E00E94E81081E391E01F
S1134EA00E94E81081E691E00E94E81088EA91E00F
S1134EB00E94E81081E691E00E94E8108BEA91E0FC
S1134EC00E94E81084E991E00E94E81088E691E0ED
S1134ED00E94E8108CED90E00E94E8108BE191E0D4
S1134EE00E94E81087E491E00E94E8108FE191E0CD
S1134EF00E94E81087EB91E00E94E8108AE391E0B9
S1134F000E94E81086EE91E00E94E81084E491E0AB
S1134F100E94E81085EA91E00E94E8108DE291E099
S1134F200E94E8108EEF90E00E94E81080EF90E07D
S1134F300E94E81088E691E00E94E81080E991E080
S1134F400E94E81086E691E00E94E8108FE791E065
S1134F500E94E81088E791E00E94E8108AEC91E052
S1134F600E94E81089E591E00E94E8108CED91E040
S1134F700E94E81088E591E00E94E8108CE891E036
S1134F800E94E8108AE591E00E94E81082EA91E02C
S1134F900E94E81088E791E00E94E81086E791E01B
S1134FA00E94E8108FEB90E00E94E81089E291E003
S1134FB00E94E81085E191E00E94E8108EE691E0FD
S1134FC00E94E8108DE791E00E94E81082E591E0EC
S1134FD00E94E81088EC91E00E94E81088E591E0D6
S1134FE00E94E81080E991E00E94E8108CE291E0D0
S1134FF00E94E8108CE291E00E94E81089EE90E0B3
S11350000E94E81088E291E00E94E81080E691E0B6
S11350100E94E81087E092E00E94E81086E691E0A2
S11350200E94E81083E791E00E94E81089E991E08A
S11350300E94E8108AE691E00E94E81085E691E07B
S11350400E94E81082E891E00E94E8108BED91E064
S11350500E94E81086E691E00E94E81085E791E05E
S11350600E94E8108BE291E00E94E8108BEA90E045
S11350700E94E81088E091E00E94E8108AE890E03D
S11350800E94E81087E391E00E94E81085E990E02F
S11350900E94E8108EEE90E00E94E8108BE991E007
S11350A00E94E81086E691E00E94E8108CE991E005
S11350B00E94E8108DE791E00E94E81089E691E0F3
S11350C00E94E8108EE791E00E94E81086E391E0E8
S11350D00E94E8108BEC91E00E94E81081E791E0D7
S11350E00E94E8108BE991E00E94E81084E691E0C8
S11350F00E94E81087E991E00E94E81086E591E0BB
S11351000E94E8108AE791E00E94E81082E791E0AB
S11351100E94E81087EF91E00E94E81080EA91E095
S11351200E94E81081E791E00E94E8108BEA91E088
S11351300E94E8108AE791E00E94E8108DE591E072
S11351400E94E81088E691E00E94E8108DE691E064
S11351500E94E81080E991E00E94E81080E491E068
S11351600E94E8108CE791E00E94E81087E891E043
S11351700E94E81089E991E00E94E81089E491E036
S11351800E94E81089E691E00E94E81088E791E027
S11351900E94A61385E395E10E94A6138EEB99E382
S11351A00E94A5000E94C9000E94B2000C94C6137C
S11351B087E090E041E050E0E2E9F2E05F989A0194
S11351C0082E02C0220F331F0A94E2F730812323F2
S11351D011F0289A01C028985F9A01972FEF8F3F0A
S11351E0920761F781E15F98289895E09A95F1F725
S11351F000005F9A8150B9F78FEC97E00197F1F7BF
S113520000C000000895809392020895FF920F93C6
S11352101F93CF93DF93EC01F42E062F10EFCE01F2
S11352200E94A500FF2011F01F5F01C01051812FC3
S11352300E9403290E94B200015089F7DF91CF91A7
S11352401F910F91FF900895809192020895AF925B
S1135250BF92CF92DF92EF92FF920F931F93CF935F
S1135260C9E108E110E0CC24DD2476016894E7F874
S11352700F2EF2E9AF2EF2E0BF2EF02D9801B70108
S1135280A6018C2F90E0880F991F880F991FF501B4
S1135290E80FF91F80819181A281B3818423952332
S11352A0A623B7230097A105B105B9F45D9A0000C0
S11352B00000000000005D980000000000000000F5
S11352C000000000000000000000000000000000DA
S11352D0000000000000000016C05D9A00000000FD
S11352E000000000000000000000000000005D98C5
S11352F000000000000000000000000000000000AA
S11353000000000000007695679557954795215059
S1135310304009F0BFCFC15008F0B0CF87E191E031
S11353200197F1F700C00000CF911F910F91FF90FA
S1135330EF90DF90CF90BF90AF900895DC01CB0148
S1135340E42FF0E0EE0FFF1FEE0FFF1FEE56FD4FB0
S113535080839183A283B3830895DC01CB0149E167
S113536022E932E0E42FF0E0EE0FFF1FEE0FFF1F03
S1135370E20FF31F80839183A283B383415090F79C
S113538008950F931F93222369F1E62FF0E0EE0FA7
S1135390FF1FEE0FFF1FEE56FD4F21E030E08901A5
S11353A002C0000F111F4A95E2F7A801662757FDB6
S11353B06095762F8A019B0104C0000F111F221FE4
S11353C0331F8A95D2F7D901C80140815181628186
S11353D07381842B952BA62BB72B80839183A28377
S11353E0B38322C0E62FF0E0EE0FFF1FEE0FFF1F86
S11353F0EE56FD4F21E030E0B90102C0660F771F81
S11354004A95E2F7AB01662757FD6095762F8A012E
S11354109B0104C0000F111F221F331F8A95D2F76E
S113542000831183228333831F910F9108958F92F8
S11354309F92AF92BF92EF92FF920F931F93CF93DD
S1135440DF934B015C01C22F413049F0423051F0EF
S1135450433059F0443061F020E0D0E00BC029E142
S1135460D4E108C023E1DFE005C02EE0DAE002C0A9
S113547029E0D1E08D2FE22EFF240894E11CF11CD9
S113548011E000E0CC2329F4912F80FD0DC0902F72
S11354900BC0C13029F4912F80FF06C0902F04C0A7
S11354A0912FC23009F4902F992329F4C501B40136
S11354B04D2F0E949E29DF5F8D2F90E08E159F0552
S11354C00CF3DF91CF911F910F91FF90EF90BF905C
S11354D0AF909F908F900895413049F0423049F049
S11354E0433049F031E0443039F030E005C034E174
S11354F003C03FE001C03AE0422F4150430F0E94F5
S11355009E290895EF92FF920F931F93CF93DF93F9
S1135510082F142FC22F6130B9F06230C1F063300C
S1135520C9F06430D1F0EE24FF24E394D0E0802F5E
S11355306D2F412F2C2F0E94C129DF5F8D2F90E00A
S11355408E159F05A4F311C089E1D4E108C083E15D
S1135550DFE005C08EE0DAE002C089E0D1E0E82EA9
S1135560FF240894E11CF11CE2CFDF91CF911F913D
S11355700F91FF90EF900895CF92DF92EF92FF92F8
S11355800F931F93CF93DF93613009F0C0C0409114
S1135590E2025091E3026091E4027091E5028130ED
S11355A009F059C08091F6029091F702A091F80297
S11355B0B091F9028093E2029093E302A093E40293
S11355C0B093E5028091F2029091F302A091F4026B
S11355D0B091F5028093F6029093F702A093F8023B
S11355E0B093F9028091EE029091EF02A091F00243
S11355F0B091F1028093F2029093F302A093F4022B
S1135600B093F5028091EA029091EB02A091EC0232
S1135610B091ED028093EE029093EF02A093F0021A
S1135620B093F1028091E6029091E702A091E80222
S1135630B091E9028093EA029093EB02A093EC020A
S1135640B093ED024093E6025093E7026093E802C0
S11356507093E902A6C1882309F0A3C18091E602F0
S11356609091E702A091E802B091E9028093E202EE
S11356709093E302A093E402B093E5028091EA02DE
S11356809091EB02A091EC02B091ED028093E602BE
S11356909093E702A093E802B093E9028091EE02AE
S11356A09091EF02A091F002B091F1028093EA028E
S11356B09093EB02A093EC02B093ED028091F2027E
S11356C09091F302A091F402B091F5028093EE025E
S11356D09093EF02A093F002B093F1028091F6024E
S11356E09091F702A091F802B091F9028093F2022E
S11356F09093F302A093F402B093F5024093F60260
S11357005093F7026093F8027093F9024AC1962FFE
S11357109250923008F0A3C0623019F0633021F443
S113572002C04FE001C04AE050E09A012F5F3F4FB2
S1135730F901EE0FFF1FEE0FFF1FEE56FD4FC08065
S1135740D180E280F380813009F043C0CA0102961F
S113575062E972E0880F991F880F991FEB01C80F47
S1135760D91F88819981AA81BB81F901EE0FFF1F9E
S1135770EE0FFF1FE60FF71F80839183A283B3838D
S1135780CA010396880F991F880F991F9B01280F40
S1135790391FF90180819181A281B3818883998322
S11357A0AA83BB834C5F5F4FFA01EE0FFF1FEE0F1E
S11357B0FF1FE60FF71F80819181A281B381E90168
S11357C088839983AA83BB83C082D182E282F382D5
S11357D0E8C0882309F0E5C0CA01049662E972E0D2
S11357E0880F991F880F991F8B01080F191FF80143
S11357F080819181A281B381F901EE0FFF1FEE0F29
S1135800FF1FE60FF71F80839183A283B383CA012E
S11358100396880F991F880F991FEB01C80FD91F92
S113582088819981AA81BB81F80180839183A283B5
S1135830B3834E5F5F4FFA01EE0FFF1FEE0FFF1FA2
S1135840E60FF71F80819181A281B38188839983B8
S1135850AA83BB83C082D182E282F382A2C0962F44
S11358609450923008F09DC0643019F0653021F4F2
S113587002C022E001C023E030E0F901EE0FFF1F77
S1135880EE0FFF1FEE56FD4FC080D180E280F38003
S1135890813009F043C0C901029642E952E0880F01
S11358A0991F880F991FEA01C80FD91F8881998110
S11358B0AA81BB81F901EE0FFF1FEE0FFF1FE40F5A
S11358C0F51F80839183A283B383C9010496880F53
S11358D0991F880F991FBA01680F791FFB018081F6
S11358E09181A281B38188839983AA83BB832A5F30
S11358F03F4FF901EE0FFF1FEE0FFF1FE40FF51FDF
S113590080819181A281B381EB0188839983AA83E9
S1135910BB83C082D182E282F38243C0882309F030
S113592040C0E901269642E952E0CC0FDD1FCC0FBE
S1135930DD1FC40FD51F88819981AA81BB81F9011C
S1135940EE0FFF1FEE0FFF1FE40FF51F80839183FF
S1135950A283B383F9013496EE0FFF1FEE0FFF1FEE
S1135960E40FF51F80819181A281B381888399839B
S1135970AA83BB832E5F3F4FD901AA0FBB1FAA0F77
S1135980BB1FA40FB51F4D915D916D917C91139731
S11359904083518362837383CD92DD92ED92FC92B6
S11359A01397DF91CF911F910F91FF90EF90DF90AC
S11359B0CF9008958F929F92AF92BF92CF92DF9231
S11359C0EF92FF926B017C0149015A0129E1A2E99E
S11359D0B2E0822F90E0FC01EE0FFF1FEE0FFF1FDD
S11359E0EA0FFB1F40815181628173814C155D0573
S11359F06E057F0559F4FC01EE0FFF1FEE0FFF1F2C
S1135A00EA0FFB1F80829182A282B382215008F7A1
S1135A10FF90EF90DF90CF90BF90AF909F908F90CA
S1135A2008954F925F926F927F928F929F92AF925E
S1135A30BF92CF92DF92EF92FF920F931F93CF9377
S1135A40DF9300D000D0CDB7DEB7813069F5C090C8
S1135A50E202D090E302E090E402F090E50280904C
S1135A60EA029090EB02A090EC02B090ED0240901C
S1135A70EE025090EF026090F0027090F10280917B
S1135A80F6029091F702A091F802B091F90289838D
S1135A909A83AB83BC830091F2021091F3022091AC
S1135AA0F4023091F502BBC0823069F5C090D20295
S1135AB0D090D302E090D402F090D5028090D60228
S1135AC09090D702A090D802B090D9024090DA0208
S1135AD05090DB026090DC027090DD028091DE0267
S1135AE09091DF02A091E002B091E10289839A8350
S1135AF0AB83BC830091CE021091CF022091D002DF
S1135B003091D1028CC0833069F5C090BE02D09030
S1135B10BF02E090C002F090C1028090C202909057
S1135B20C302A090C402B090C5024090C602509037
S1135B30C7026090C8027090C9028091CA02909115
S1135B40CB02A091CC02B091CD0289839A83AB831E
S1135B50BC830091BA021091BB022091BC02309127
S1135B60BD025DC0843069F5C0909A02D0909B025A
S1135B70E0909C02F0909D028090A2029090A3027B
S1135B80A090A402B090A5024090AA025090AB024B
S1135B906090AC027090AD028091B2029091B30219
S1135BA0A091B402B091B50289839A83AB83BC837C
S1135BB000919602109197022091980230919902D7
S1135BC02EC0853061F5C0909E02D0909F02E09077
S1135BD0A002F090A1028090A6029090A702A0904B
S1135BE0A802B090A9024090AE025090AF0260901B
S1135BF0B0027090B1028091B6029091B702A09168
S1135C00B802B091B90289839A83AB83BC830091B3
S1135C109602109197022091980230919902613076
S1135C20A9F5C092E202D092E302E092E402F0927B
S1135C30E5028092EA029092EB02A092EC02B0920A
S1135C40ED024092EE025092EF026092F0027092E6
S1135C50F10289819A81AB81BC818093F602909391
S1135C60F702A093F802B093F9020093F2021093A2
S1135C70F3022093F4023093F5020093E6021093AA
S1135C80E7022093E8023093E902BBC0623069F571
S1135C90C092D202D092D302E092D402F092D50202
S1135CA08092D6029092D702A092D802B092D902E2
S1135CB04092DA025092DB026092DC027092DD02C2
S1135CC089819A81AB81BC818093DE029093DF024B
S1135CD0A093E002B093E1020093CE021093CF02AE
