:100000000C9434000C9451000C9451000C94510049
:100010000C9451000C9451000C9451000C9451001C
:100020000C9451000C9451000C9451000C9451000C
:100030000C9451000C9451000C9451000C945100FC
:100040000C9451000C9451000C9451000C945100EC
:100050000C9451000C9451000C9451000C945100DC
:100060000C9451000C94510011241FBECFEFD8E026
:10007000DEBFCDBF13E0A0E0B1E0ECE0F0E302C0F2
:1000800005900D92A831B107D9F713E0A8E1B3E0CC
:1000900001C01D92A03EB107E1F70E9453000C94ED
:1000A00004180C9400000E945E000E940D060E943D
:1000B00042130E94A3040E94A804FDCF10921803CB
:1000C000579A209A5F982898559A5D9887B1807CB6
:1000D00087B9089584B18C6384B98AB188618AB97B
:1000E0008CB581658CBD08952A988EBD0DB407FE30
:1000F000FDCF2A9A08955C980E94740008955C9A36
:100100000E9474000895CF92DF92EF92FF920F93B6
:100110001F93CF93DF93F82EE92EC62FD72F142FDE
:10012000052FC22ED32E8AE20E947B008E2D0E94C4
:100130007F008F2D0E947F00802F0E947F00812FE3
:100140000E947F008BE20E947B008D2F0E947F0027
:100150008C2F0E947F008D2D0E947F008C2D0E948D
:100160007F008CE20E947B00DF91CF911F910F9165
:10017000FF90EF90DF90CF9008954F925F926F9233
:100180007F929F92AF92BF92CF92DF92EF92FF92B7
:100190000F931F93CF93DF93982ED92E662E172F90
:1001A0002A01E901F02E0E948300A62CB12E3E0107
:1001B0000894611C711CA614B704D8F482010F5F67
:1001C0001F4FC92DDD2DC017D10768F48C2D0E945B
:1001D0007F008E2D0E947F008F2D0E947F00219630
:1001E000C017D10798F30894A11CB11CA614B7043A
:1001F00040F3DF91CF911F910F91FF90EF90DF902F
:10020000CF90BF90AF909F907F906F905F904F90F6
:1002100008950E946A005B988FEF91EEA4E08150F0
:100220009040A040E1F700C000005B9A8BEC0E9478
:100230007B0089E30E947F008CE20E947F0080E0C7
:100240000E947F0084E30E947F0082E00E947F0082
:100250008FEC0E947B0080E00E947F0081EC0E9476
:100260007F0080E30E947F0088EE0E947B0085E88B
:100270000E947F0080E00E947F0088E70E947F004C
:100280008AEE0E947B0080E00E947F0080E00E9456
:100290007F008DEE0E947B0084E60E947F0083E059
:1002A0000E947F0082E10E947F0081E80E947F001F
:1002B00087EF0E947B0080E20E947F0080EC0E941A
:1002C0007B0089E00E947F0081EC0E947B0080E13E
:1002D0000E947F0085EC0E947B008EE30E947F00DD
:1002E00088E20E947F0087EC0E947B0086E80E94E3
:1002F0007F0086E30E947B0088E40E947F008AE3FF
:100300000E947B0085E50E947F0081EB0E947B00BC
:1003100080E00E947F0088E10E947F0086EB0E94BF
:100320007B0088E00E947F0082E80E947F0087E2D5
:100330000E947F0081E10E947B008FEF9BEDA5E092
:1003400081509040A040E1F700C0000089E20E9487
:100350007B008CE20E947B000895CF92DF92EF92A7
:10036000FF920F931F93082FE62EC42E80E090E09B
:1003700060E070E040EF50E020E431E010E0FF2466
:10038000DD240E94BD001F910F91FF90EF90DF9040
:10039000CF9008952F923F924F925F926F927F92EB
:1003A0008F929F92AF92BF92CF92EF920F93CF9383
:1003B000DF9300D000D0CDB7DEB72B015A8349833D
:1003C000882E992E22243324AA24BB24A39420C04F
:1003D000C5010B8002C0880F991F0A94E2F7F4014F
:1003E00020813181822393230097D9F48B819C81D2
:1003F00001979C838B83009759F70894211C311C2B
:10040000E2E0F0E08E0E9F1EFCE02F163104B9F002
:100410008BE090E09C838B8369807A8062187308FC
:10042000D7CFA201EB81FC814E1B5F0BCA01B30148
:10043000930100E0EE24CC240E94BD00D7CF0F90A2
:100440000F900F900F90DF91CF910F91EF90CF9081
:10045000BF90AF909F908F907F906F905F904F90E4
:100460003F902F9008950F931F93CF93DF936130A8
:1004700089F420910E0230910F02E0911002F09168
:1004800011024091120250911302A0911402B091F6
:1004900015025EC0623089F4209105023091060297
:1004A000E0910702F09108024091090250910A027E
:1004B000A0910B02B0910C024BC0633089F42091E3
:1004C000FC013091FD01E091FE01F091FF014091AE
:1004D000000250910102A0910202B091030238C0C3
:1004E000643089F42091F3013091F401E091F50139
:1004F000F091F6014091F7015091F801A091F901B6
:10050000B091FA0125C0653089F42091EA0130915B
:10051000EB01E091EC01F091ED014091EE01509181
:10052000EF01A091F001B091F10112C0663081F4A9
:100530002091E1013091E201E091E301F091E401C9
:100540004091E5015091E601A091E701B091E801E9
:10055000813089F4C9010696421B530BBA01769586
:100560006795680F791FAD014851504080EC91E0CC
:100570000E94CA019EC0823089F4C9010696421BBE
:10058000530BBA0176956795680F791FAD014851F5
:10059000504088EA91E00E94CA018BC0833089F400
:1005A000C9010696421B530BBA0176956795680FF1
:1005B000791FAD014851504080E991E00E94CA0185
:1005C00078C0843089F4C9010696421B530BBA01E6
:1005D00076956795680F791FAD014851504088E7BF
:1005E00091E00E94CA0165C0853089F4C901069670
:1005F000421B530BBA0176956795680F791FAD01C1
:100600004851504080E691E00E94CA0152C08630B5
:1006100089F4C9010696421B530BBA01769567957A
:10062000680F791FAD014851504088E491E00E9465
:10063000CA013FC08730E9F18830C1F4421B530B37
:100640008A0116950795020F131FEF01689680E344
:1006500091E0B801AE010E94CA01B801645F7F4F0A
:1006600088E191E0AE010E94CA0123C0893009F5FA
:10067000421B530B8A0116950795020F131FEF01BA
:100680006896B8016650704080E091E0AE010E942B
:10069000CA01B8016A5F7F4F80E391E0AE010E941A
:1006A000CA01B8016E5E7F4F88E191E0AE010E9401
:1006B000CA01DF91CF911F910F910895CF92EF92D0
:1006C0000F931F93CF93DF93C82F813049F4E1E05C
:1006D00080911602813009F4E0E06093160238C080
:1006E000823049F4E1E080910D02813009F4E0E0CC
:1006F00060930D022DC0833049F4E1E08091040243
:10070000813009F4E0E06093040222C0843049F4AF
:10071000E1E08091FB01813009F4E0E06093FB01AE
:1007200017C0853049F4E1E08091F201813009F48D
:10073000E0E06093F2010CC0863049F4E1E0809182
:10074000E901813009F4E0E06093E90101C0E0E0F3
:10075000613041F40091DE01E090DF01C090E001E2
:10076000D7E018C0623041F40091D801E090D9017F
:10077000C090DA01D8E00EC0633041F40091DB0193
:10078000E090DC01C090DD01D9E004C0D0E0CC24D1
:10079000EE2400E0C13091F480910E0290910F029E
:1007A0006091100270911102409112025091130257
:1007B000209114023091150211E06DC0C23091F405
:1007C00080910502909106026091070270910802E3
:1007D0004091090250910A0220910B0230910C02C3
:1007E00012E059C0C33091F48091FC019091FD0159
:1007F0006091FE017091FF01409100025091010251
:10080000209102023091030213E045C0C43091F4FC
:100810008091F3019091F4016091F5017091F601DE
:100820004091F7015091F8012091F9013091FA01BE
:1008300014E031C0C53091F48091EA019091EB0150
:100840006091EC017091ED014091EE015091EF014A
:100850002091F0013091F10115E01DC0C63091F4F6
:100860008091E1019091E2016091E3017091E401D6
:100870004091E5015091E6012091E7013091E801B6
:1008800016E009C010E020E030E060E070E040E0F9
:1008900050E080E090E0EE2329F0605D7F4F0E9401
:1008A000BD0002C00E94BD00812F6C2F0E94330248
:1008B0008D2F6C2F0E943302DF91CF911F910F91EA
:1008C000EF90CF900895CF92EF920F9386E790E04C
:1008D00060E070E04AE750E020E431E000E0EE2420
:1008E000CC240E94BD0080E090E067E670E040EF1D
:1008F00050E02BE630E00E94BD0080E090E062ED29
:1009000070E040EF50E026ED30E00E94BD0081E055
:1009100061E00E945E0382E061E00E945E0383E08A
:1009200061E00E945E0384E061E00E945E0385E076
:1009300061E00E945E0386E061E00E945E030F9129
:10094000EF90CF9008950E9409010E9463040895DA
:100950000F93339916C0349914C0359912C0309949
:1009600010C031990EC032990CC00E9463048FEF01
:1009700099E6A8E181509040A040E1F700C0000056
:100980004AC133990FC081E062E00E945E0381E0BA
:1009900090E066E070E00E94401781E061E00E9414
:1009A0005E0339C134990FC082E062E00E945E03A9
:1009B0008CE090E065E070E00E94401782E061E02A
:1009C0000E945E0328C135995BC083E062E00E940B
:1009D0005E0381E069E120E030E0A90102E00E94CD
:1009E000A61481E061E020E030E04FEF50E00E948B
:1009F000A6148FEF93EDA0E381509040A040E1F763
:100A000000C0000082E061E02FEF30E040E050E005
:100A10000E94A6148FEF93EDA0E381509040A04078
:100A2000E1F700C0000081E062E020E030E0A901D1
:100A30000E94A6148FEF93EDA0E381509040A04058
:100A4000E1F700C0000081E062E020E03FEF40E01D
:100A500050E00E94A6148FEF93EDA0E381509040E8
:100A6000A040E1F700C0000081E062E020E030E05B
:100A7000A9010E94A61483E061E00E945E03CBC03E
:100A800030990FC084E062E00E945E0387E090E04E
:100A900065E070E00E94401784E061E00E945E0320
:100AA000BAC031990FC085E062E00E945E0381E127
:100AB00090E069E070E00E94401785E061E00E94EC
:100AC0005E03A9C03299A7C086E062E00E945E037F
:100AD00080E10E943B068FEF91EEA4E081509040B0
:100AE000A040E1F700C0000080E20E943B068FEFCB
:100AF00091EEA4E081509040A040E1F700C00000DA
:100B000080E30E943B068FEF91EEA4E0815090407D
:100B1000A040E1F700C0000080E40E943B068FEF98
:100B200091EEA4E081509040A040E1F700C00000A9
:100B300080E50E943B068FEF91EEA4E0815090404B
:100B4000A040E1F700C0000080E60E943B068FEF66
:100B500091EEA4E081509040A040E1F700C0000079
:100B60008FEF0E943B068FEF95EEAAEA81509040EE
:100B7000A040E1F700C0000080E60E943B068FEF36
:100B800091EEA4E081509040A040E1F700C0000049
:100B900080E50E943B068FEF91EEA4E081509040EB
:100BA000A040E1F700C0000080E40E943B068FEF08
:100BB00091EEA4E081509040A040E1F700C0000019
:100BC00080E30E943B068FEF91EEA4E081509040BD
:100BD000A040E1F700C0000080E20E943B068FEFDA
:100BE00091EEA4E081509040A040E1F700C00000E9
:100BF00080E10E943B068FEF91EEA4E0815090408F
:100C0000A040E1F700C0000080E00E943B0686E0C3
:100C100061E00E945E030F91089587E090E041E05B
:100C200050E0E8E1F3E05F989A01082E02C0220F3D
:100C3000331F0A94E2F73081232311F0289A01C070
:100C400028985F9A01972FEF8F3F920761F781E114
:100C50005F98289895E09A95F1F700005F9A815087
:100C6000B9F78FEC97E00197F1F700C00000089505
:100C7000809318030895809318030E940D06089529
:100C80004F925F926F927F928F929F92AF92BF929C
:100C9000EF920F931F932A013B0148015901809362
:100CA00018030E940D0681E0E81611F40E94421319
:100CB00081149104A104B104E9F423C000000000F0
:100CC0000000000000000000000000000000000024
:100CD0000000000000000000000000002150304033
:100CE00069F70196A11DB11D88159905AA05BB05D7
:100CF00031F407C080E090E0DC014BE153E09A0161
:100D0000DDCF109218030E940D0684149504A604EA
:100D1000B70408F02BC0B301A201481959096A09A8
:100D20007B09E9F423C0000000000000000000007F
:100D300000000000000000000000000000000000B3
:100D40000000000000002150304069F70196A11D0D
:100D5000B11D84179507A607B70731F407C080E0D7
:100D600090E0DC01EBE1F3E09F01DDCF1F910F91FB
:100D7000EF90BF90AF909F908F907F906F905F901B
:100D80004F900895EF920F931F93CF93CE2D0E9413
:100D9000400686E090E040E050E0BA012C2F0E942F
:100DA0006D15CF911F910F91EF900895EF920F93D2
:100DB0001F93CF93C82F86E090E04FEF5FEF6FEF68
:100DC00070E021E00E94B2148C2F44E351E060E017
:100DD00070E00AEF10E020E030E0EE24E3940E949F
:100DE000400686E090E04FEA5FEA6FEA70E021E0BB
:100DF0000E94B2148C2F49E751E060E070E00AEFE6
:100E000010E020E030E00E94400686E090E04FE5F0
:100E10005FE56FE570E021E00E94B21486E090E0AB
:100E20004FE55FE56FE570E025E00E94B2148C2F7E
:100E300047E851E060E070E00AEF10E020E030E0C9
:100E40000E94400686E090E04FE05FE06FE070E0D7
:100E500021E00E94B2148C2F40E351E060E070E08A
:100E60000AEF10E020E030E00E94400686E090E0CB
:100E70004FEB5EEB6EEB7FEF21E00E94B2148C2F04
:100E800041E253E060E070E00AEF10E020E030E083
:100E90000E94400686E090E04FE65EE66EE67FEF59
:100EA00025E00E94B2148C2F46E251E060E070E031
:100EB0000AEF10E020E030E00E94400686E090E07B
:100EC0004FE15EE16EE17FEF25E00E94B21486E023
:100ED00090E04FE15EE16EE17FEF21E00E94B2140D
:100EE0008C2F41E751E060E070E00AEF10E020E075
:100EF00030E00E94400686E090E04FEC5DEC6DEC47
:100F00007EEF25E00E94B2148C2F4FE851E060E0A4
:100F100070E00AEF10E020E030E00E94400686E03A
:100F200090E04FE75DE76DE77EEF25E00E94B214A9
:100F30008C2F42E051E060E070E00AEF10E020E02A
:100F400030E00E94400686E090E040E050E0BA01C8
:100F500022E00E94B2148C2F45E754E060E070E07C
:100F60000AEF10E020E030E00E944006CF911F9190
:100F70000F91EF900895EF920F931F93CF93C82F87
:100F800043EA51E060E070E00AEF10E020E030E07A
:100F9000EE24E3940E9440068C2F4CE851E060E080
:100FA00070E00AEF10E020E030E00E9440068C2F55
:100FB00049E151E060E070E00AEF10E020E030E04D
:100FC0000E9440068C2F4CE153E060E070E00AEF95
:100FD00010E020E030E00E9440068C2F44E151E018
:100FE00060E070E00AEF10E020E030E00E94400690
:100FF0008C2F45EB51E060E070E00AEF10E020E05C
:1010000030E00E9440068C2F45E751E060E070E040
:101010000AEF10E020E030E00E9440068C2F4BE207
:1010200051E060E070E00AEF10E020E030E00E9464
:1010300040068C2F4EE154E060E070E00AEF10E0D3
:1010400020E030E00E9440068C2F43EA51E060E04F
:1010500070E00AEF10E020E030E00E9440068C2FA4
:1010600042E851E060E070E00AEF10E020E030E09C
:101070000E9440068C2F44E351E060E070E00AEFEC
:1010800010E020E030E00E9440068C2F4EE053E05C
:1010900060E070E00AEF10E020E030E00E944006DF
:1010A0008C2F44E351E060E070E00AEF10E020E0B4
:1010B00030E00E9440068C2F49E951E060E070E08A
:1010C0000AEF10E020E030E00E9440068C2F4EE74F
:1010D00051E060E070E00AEF10E020E030E00E94B4
:1010E00040068C2F46E555E060E070E00AEF10E026
:1010F00020E030E00E944006CF911F910F91EF90C9
:101100000895EF920F931F93CF93C82F82E090E042
:101110004FEF5FE56FEB70E021E00E94B21483E0D7
:1011200090E04FEF5FE56FEB70E021E00E94B214BA
:101130008C2F47E851E060E070E00AEF10E020E01B
:1011400030E0EE24E3940E94400682E090E04FEF0E
:101150005FE56FEB70E025E00E94B21483E090E061
:101160004FEF5FE56FEB70E025E00E94B2148C2F2B
:101170004CE851E060E070E00AEF10E020E030E081
:101180000E94400682E090E040E050E0BA0121E099
:101190000E94B21483E090E040E050E0BA0121E008
:1011A0000E94B21481E090E04FED50ED68EE70E0E7
:1011B00025E00E94B21484E090E04FED50ED68EE1F
:1011C00070E025E00E94B2148C2F42E251E060E012
:1011D00070E00AEF10E020E030E00E94400686E078
:1011E00090E040E050E0BA0122E00E94B2148C2F5F
:1011F00041E253E060E070E00AEF10E020E030E010
:101200000E94400682E090E04FEF5FE56FEB70E0F8
:1012100021E00E94B21483E090E04FEF5FE56FEBB6
:1012200070E021E00E94B2148C2F44E551E060E0B0
:1012300070E00AEF10E020E030E00E94400682E01B
:1012400090E04FEF5FE56FEB70E025E00E94B21495
:1012500083E090E04FEF5FE56FEB70E025E00E94E8
:10126000B2148C2F45E751E060E070E00AEF10E027
:1012700020E030E00E94400682E090E040E050E054
:10128000BA0121E00E94B21483E090E040E050E017
:10129000BA0121E00E94B21481E090E04FED50EDE0
:1012A00068EE70E025E00E94B21484E090E04FED1B
:1012B00050ED68EE70E025E00E94B2148C2F45E7F7
:1012C00051E060E070E00AEF10E020E030E00E94C2
:1012D000400681E090E04FED50ED68EE70E021E0D7
:1012E0000E94B21484E090E04FED50ED68EE70E0A3
:1012F00021E00E94B2148C2F4BE251E060E070E0DC
:101300000AEF10E020E030E00E94400686E090E026
:1013100040E050E0BA0122E00E94B2148C2F4CE66B
:1013200054E060E070E00AEF10E020E030E00E945E
:10133000400682E090E04FEF5FE56FEB70E021E068
:101340000E94B21483E090E04FEF5FE56FEB70E036
:1013500021E00E94B2148C2F42E851E060E070E07E
:101360000AEF10E020E030E00E94400682E090E0CA
:101370004FEF5FE56FEB70E025E00E94B21483E071
:1013800090E04FEF5FE56FEB70E025E00E94B21454
:101390008C2F47E851E060E070E00AEF10E020E0B9
:1013A00030E00E94400682E090E040E050E0BA0168
:1013B00021E00E94B21483E090E040E050E0BA01E6
:1013C00021E00E94B21481E090E04FED50ED68EE14
:1013D00070E025E00E94B21484E090E04FED50ED03
:1013E00068EE70E025E00E94B2148C2F4DE151E0D0
:1013F00060E070E00AEF10E020E030E00E9440067C
:1014000086E090E040E050E0BA0122E00E94B21491
:101410008C2F47E153E060E070E00AEF10E020E03D
:1014200030E00E94400682E090E04FEF5FE56FEB16
:1014300070E021E00E94B21483E090E04FEF5FE59E
:101440006FEB70E021E00E94B2148C2F44E351E076
:1014500060E070E00AEF10E020E030E00E9440061B
:1014600081E090E04FEF5FE56FEB70E021E00E94DC
:10147000B2148C2F4CE851E060E070E00AEF10E00D
:1014800020E030E00E94400684E090E04FEF5FE50E
:101490006FEB70E021E00E94B2148C2F45E951E01F
:1014A00060E070E00AEF10E020E030E00E944006CB
:1014B00086E090E04FED50ED68EE70E022E00E9493
:1014C000B2148C2F4BE555E060E070E00AEF10E0BD
:1014D00020E030E00E94400686E090E040E050E0EE
:1014E000BA0122E00E94B2148C2F45EB51E060E07B
:1014F00070E00AEF10E020E030E00E94400682E059
:1015000090E04FEF5FE56FEB70E021E00E94B214D6
:1015100083E090E04FEF5FE56FEB70E021E00E9429
:10152000B2148C2F4DE251E060E070E00AEF10E061
:1015300020E030E00E94400681E090E04FEF5FE560
:101540006FEB70E021E00E94B2148C2F47E451E071
:1015500060E070E00AEF10E020E030E00E9440061A
:1015600084E090E04FEF5FE56FEB70E021E00E94D8
:10157000B2148C2F4AE253E060E070E00AEF10E012
:1015800020E030E00E94400684E090E04FEF5FE50D
:101590006FEB70E021E00E94B2148C2F4BE251E01F
:1015A00060E070E00AEF10E020E030E00E944006CA
:1015B00082E090E04FEF5FE56FEB70E021E00E948A
:1015C000B21483E090E04FEF5FE56FEB70E021E055
:1015D0000E94B21484E061E042E022E000E010E00A
:1015E0000E94DD158C2F45E650E060E070E00AEFC8
:1015F00010E020E030E00E94400684E061E042E03C
:1016000022E000E010E00E94DD158C2F4DEB50E051
:1016100060E070E00AEF10E020E030E00E94400659
:1016200084E061E042E022E000E010E00E94DD158D
:101630008C2F4BE251E060E070E00AEF10E020E018
:1016400030E00E94400682E090E04FEF5FE56FEBF4
:1016500070E025E00E94B21483E090E04FEF5FE578
:101660006FEB70E025E00E94B21481E090E04FEF54
:101670005FE56FEB70E021E00E94B21484E061E06E
:1016800042E022E000E010E00E94DD158C2F42EFE6
:1016900050E060E070E00AEF10E020E030E00E94EF
:1016A000400686E090E040E050E0BA0122E00E946F
:1016B000B2148C2F4AE253E060E070E00AEF10E0D1
:1016C00020E030E00E944006CF911F910F91EF90F3
:1016D000089581E069E12FEF3FEF4FEF50E00E9466
:1016E00041140E94421389E70E943B0608950F931C
:1016F000CF9389E70E943B06C1E081E06C2F2FEF7A
:101700003FEF4FEF50E002E00E94A6148FEF99E602
:10171000A8E181509040A040E1F700C00000CF5FF9
:10172000CA3159F780E00E943B0681E069E120E080
:1017300030E0A9010E94A6148FEF93EDA0E3815041
:101740009040A040E1F700C0000089E70E943B06FE
:10175000C1E08C2F6C2F2FEF3FEF4FEF50E002E0F6
:101760000E94A6148FEF99E6A8E181509040A04016
:10177000E1F700C00000CF5FCA3159F780E00E9456
:101780003B0681E069E120E030E0A9010E94A61457
:10179000CF910F910895EF920F931F9389E090E0FE
:1017A0000E94BB0780E390E00E94810880E590E002
:1017B0000E94D60684E061E00E94721585E069E02F
:1017C0000E9472158FEF4FE651E060E070E00AEF83
:1017D00010E020E030E0EE24E3940E94400684E034
:1017E00069E00E94721585E061E00E9472158FEF3A
:1017F00044EA52E060E070E00AEF10E020E030E000
:101800000E94400684E061E00E94721585E069E074
:101810000E9472158FEF40E951E060E070E00AEF3E
:1018200010E020E030E00E94400684E06CE00E947E
:10183000721585E061E00E9472158FEF4EEA52E06A
:1018400060E070E00AEF10E020E030E00E94400627
:1018500084E061E00E94721585E06CE00E947215E0
:101860008FEF40EB51E060E070E00AEF10E020E025
:1018700030E00E94400684E06FE00E94721585E02F
:1018800061E00E9472158FEF45E751E060E070E083
:101890000AEF10E020E030E00E94400684E061E0C2
:1018A0000E94721585E06FE00E9472158FEF4BE089
:1018B00051E060E070E00AEF10E020E030E00E94CC
:1018C000400684E062E10E94721585E061E00E94BA
:1018D00072158FEF40EB51E060E070E00AEF10E02E
:1018E00020E030E00E94400684E061E00E94721532
:1018F00085E061E00E94721581E169E020E030E05E
:10190000A90101E00E94661487E06AE020E030E06F
:10191000A9010E9466148FEF44EA52E060E070E093
:101920000AEF10E020E030E00E94400682E061E033
:1019300042E022E000E010E00E94DD1583E061E07B
:1019400042E022E00E94DD1584E061E042E022E016
:101950000E94DD158FEF4FE751E060E070E00AEF85
:1019600010E020E030E00E94400682E061E042E0CA
:1019700022E000E010E00E94DD1583E061E042E03B
:1019800022E00E94DD1584E061E042E022E00E9456
:10199000DD158FEF4AE452E060E070E00AEF10E0FE
:1019A00020E030E00E94400682E061E042E022E078
:1019B00000E010E00E94DD1583E061E042E022E0FB
:1019C0000E94DD1584E061E042E022E00E94DD1526
:1019D0008FEF41E951E060E070E00AEF10E020E0B5
:1019E00030E00E94400682E061E042E022E000E058
:1019F00010E00E94DD1583E061E042E022E00E94F9
:101A0000DD1584E061E042E022E00E94DD158FEF09
:101A10004AE551E060E070E00AEF10E020E030E0DD
:101A20000E94400682E061E042E022E000E010E037
:101A30000E94DD1583E061E042E022E00E94DD15B6
:101A400084E061E042E022E00E94DD158FEF47EE86
:101A500050E060E070E00AEF10E020E030E00E942B
:101A6000400682E061E042E022E000E010E00E94F7
:101A7000DD1583E061E042E022E00E94DD1584E0B4
:101A800061E042E022E00E94DD158FEF4CE651E07C
:101A900060E070E00AEF10E020E030E00E944006D5
:101AA00082E061E042E022E000E010E00E94DD150B
:101AB00083E061E042E022E00E94DD1584E061E025
:101AC00042E022E00E94DD158FEF46E551E060E044
:101AD00070E00AEF10E020E030E00E94400682E073
:101AE00061E042E022E000E010E00E94DD1583E0CA
:101AF00061E042E022E00E94DD1584E061E042E026
:101B000022E00E94DD158FEF47EE50E060E070E0CC
:101B10000AEF10E020E030E00E94400682E061E041
:101B200042E022E000E010E00E94DD1583E061E089
:101B300042E022E00E94DD1584E061E042E022E024
:101B40000E94DD158FEF41E751E060E070E00AEFA1
:101B500010E020E030E00E94400682E061E042E0D8
:101B600022E000E010E00E94DD1583E061E042E049
:101B700022E00E94DD1584E061E042E022E00E9464
:101B8000DD158FEF43E752E060E070E00AEF10E010
:101B900020E030E00E9440068FEF47EC51E060E02B
:101BA00070E00AEF10E020E030E00E9440068FEF86
:101BB00044E852E060E070E00AEF10E020E030E03E
:101BC0000E9440068FEF43EA51E060E070E00AEFC8
:101BD00010E020E030E00E9440068FEF42E851E044
:101BE00060E070E00AEF10E020E030E00E94400684
:101BF0008FEF42E051E060E070E00AEF10E020E09B
:101C000030E00E9440068FEF47EA51E060E070E06C
:101C10000AEF10E020E030E00E9440068FEF4CE831
:101C200051E060E070E00AEF10E020E030E00E9458
:101C300040068FEF49E151E060E070E00AEF10E00C
:101C400020E030E00E9440068FEF40EB51E060E082
:101C500070E00AEF10E020E030E00E9440068FEFD5
:101C60004BE752E060E070E00AEF10E020E030E087
:101C70000E9440068FEF45ED51E060E070E00AEF12
:101C800010E020E030E00E9440068FEF40E951E094
:101C900060E070E00AEF10E020E030E00E944006D3
:101CA0008FEF44E151E060E070E00AEF10E020E0E7
:101CB00030E00E9440068FEF41E951E060E070E0C3
:101CC0000AEF10E020E030E00E9440068FEF40E78E
:101CD00051E060E070E00AEF10E020E030E00E94A8
:101CE00040068FEF4DE351E060E070E00AEF10E056
:101CF00020E030E00E9440068FEF4AEB51E060E0C8
:101D000070E00AEF10E020E030E00E9440068FEF24
:101D100047E651E060E070E00AEF10E020E030E0DC
:101D20000E9440068FEF4BE251E060E070E00AEF66
:101D300010E020E030E00E9440068FEF45E453E0E1
:101D400060E070E00AEF10E020E030E00E94400622
:101D50008FEF48ED50E060E070E00AEF10E020E027
:101D600030E00E9440068FEF4CEA51E060E070E006
:101D70000AEF10E020E030E00E9440068FEF41EBD8
:101D800051E060E070E00AEF10E020E030E00E94F7
:101D900040068FEF46E251E060E070E00AEF10E0AD
:101DA00020E030E00E9440068FEF4AE253E060E01E
:101DB00070E00AEF10E020E030E00E9440068FEF74
:101DC0004BE251E060E070E00AEF10E020E030E02C
:101DD0000E9440068FEF49E751E060E070E00AEFB3
:101DE00010E020E030E00E9440068FEF45E951E02E
:101DF00060E070E00AEF10E020E030E00E94400672
:101E00008FEF49E351E060E070E00AEF10E020E07E
:101E100030E00E9440068FEF44E154E060E070E063
:101E20000AEF10E020E030E00E9440068FEF41E929
:101E300051E060E070E00AEF10E020E030E00E9446
:101E400040068FEF4EE951E060E070E00AEF10E0ED
:101E500020E030E00E9440068FEF4FE251E060E06A
:101E600070E00AEF10E020E030E00E9440068FEFC3
:101E700041E253E060E070E00AEF10E020E030E083
:101E80000E9440068FEF44E351E060E070E00AEF0B
:101E900010E020E030E00E9440068FEF4CE851E077
:101EA00060E070E00AEF10E020E030E00E944006C1
:101EB0008FEF47E651E060E070E00AEF10E020E0CD
:101EC00030E00E9440068FEF47E25DE060E070E0A6
:101ED0000AEF10E020E030E00E9440068FEF42EE73
:101EE00050E060E070E00AEF10E020E030E00E9497
:101EF00040068FEF44E551E060E070E00AEF10E04B
:101F000020E030E00E9440068FEF45E951E060E0BC
:101F100070E00AEF10E020E030E00E9440068FEF12
:101F200042E451E060E070E00AEF10E020E030E0D1
:101F30000E9440068FEF46EF51E060E070E00AEF4C
:101F400010E020E030E00E9440068FEF41ED5AE0C3
:101F500060E070E00AEF10E020E030E00E94400610
:101F60008FEF45E951E060E070E00AEF10E020E01B
:101F700030E00E9440068FEF45E751E060E070E0FE
:101F80000AEF10E020E030E00E9440068FEF4DE1C4
:101F900051E060E070E00AEF10E020E030E00E94E5
:101FA00040068FEF48ED5BE060E070E00AEF10E084
:101FB00020E030E00E9440068FEF46E251E060E012
:101FC00070E00AEF10E020E030E00E9440068FEF62
:101FD0004CE651E060E070E00AEF10E020E030E015
:101FE0000E9440068FEF4EE751E060E070E00AEF9C
:101FF00010E020E030E00E9440068FEF46E251E022
:1020000060E070E00AEF10E020E030E00E9440065F
:102010008FEF4AEF51E060E070E00AEF10E020E05F
:1020200030E00E9440068FEF40EE5AE060E070E042
:102030000AEF10E020E030E00E9440068FEF4EE90A
:1020400051E060E070E00AEF10E020E030E00E9434
:1020500040068FEF4BE651E060E070E00AEF10E0E1
:1020600020E030E00E9440068FEF49E151E060E05F
:1020700070E00AEF10E020E030E00E9440068FEFB1
:102080004FE456E060E070E00AEF10E020E030E05E
:102090000E9440068FEF44E554E060E070E00AEFF4
:1020A00010E020E030E00E9440068FEF41ED5CE060
:1020B00060E070E00AEF10E020E030E00E944006AF
:1020C0008FEF42E254E060E070E00AEF10E020E0C1
:1020D00030E00E9440068FEF4CE551E160E070E097
:1020E0000AEF10E020E030E00E9440068FEF44E469
:1020F00052E060E070E00AEF10E020E030E00E9483
:1021000040068FEF47EA51E060E070E00AEF10E030
:1021100020E030E00E9440068FEF49EA52E060E0A4
:1021200070E00AEF10E020E030E00E9440068FEF00
:1021300040E951E060E070E00AEF10E020E030E0BC
:102140000E9440068FEF4EEA52E060E070E00AEF36
:1021500010E020E030E00E9440068FEF47EA51E0B7
:1021600060E070E00AEF10E020E030E00E944006FE
:102170008FEF42E851E060E070E00AEF10E020E00D
:1021800030E00E9440068FEF47E051E060E070E0F1
:102190000AEF10E020E030E00E9440068FEF42EAB4
:1021A00051E060E070E00AEF10E020E030E00E94D3
:1021B00040068FEF4BE952E060E070E00AEF10E07C
:1021C00020E030E00E9440068FEF4CEA51E060E0F2
:1021D00070E00AEF10E020E030E00E9440068FEF50
:1021E00049EA52E060E070E00AEF10E020E030E001
:1021F0000E9440068FEF40E951E060E070E00AEF96
:1022000010E020E030E00E9440068FEF4CE952E001
:1022100060E070E00AEF10E020E030E00E9440064D
:102220008FEF4EE951E060E070E00AEF10E020E04F
:1022300030E00E9440068FEF4BEF52E060E070E02C
:102240000AEF10E020E030E00E9440068FEF43E606
:1022500051E060E070E00AEF10E020E030E00E9422
:1022600040068FEF46E952E060E070E00AEF10E0D0
:1022700020E030E00E9440068FEF41E152E060E054
:1022800070E00AEF10E020E030E00E9440068FEF9F
:1022900042E552E060E070E00AEF10E020E030E05C
:1022A0000E9440068FEF4EEF51E060E070E00AEFD1
:1022B00010E020E030E00E9440068FEF4AE751E056
:1022C00060E070E00AEF10E020E030E00E9440069D
:1022D0008FEF48EF50E060E070E00AEF10E020E0A0
:1022E00030E00E9440068FEF4AE951E060E070E084
:1022F0000AEF10E020E030E00E9440068FEF42E855
:1023000051E060E070E00AEF10E020E030E00E9471
:1023100040068FEF42E251E060E070E00AEF10E02B
:1023200020E030E00E9440068FEF47EA51E060E095
:1023300070E00AEF10E020E030E00E9440068FEFEE
:1023400047E952E060E070E00AEF10E020E030E0A2
:102350000E9440068FEF48EE51E060E070E00AEF27
:1023600010E020E030E00E9440068FEF4DE151E0A8
:1023700060E070E00AEF10E020E030E00E944006EC
:102380008FEF42E451E060E070E00AEF10E020E0FF
:1023900030E00E9440068FEF4CEA51E060E070E0D0
:1023A0000AEF10E020E030E00E9440068FEF47E89F
:1023B00051E060E070E00AEF10E020E030E00E94C1
:1023C00040068FEF46EE50E060E070E00AEF10E06C
:1023D00020E030E00E9440068FEF48EE51E060E0E0
:1023E00070E00AEF10E020E030E00E9440068FEF3E
:1023F00042E651E060E070E00AEF10E020E030E0FB
:102400000E9440068FEF4DE351E060E070E00AEF7C
:1024100010E020E030E00E9440068FEF48E652E0F6
:1024200060E070E00AEF10E020E030E00E9440063B
:102430001F910F91EF9008954F925F926F927F924C
:102440008F929F92AF92BF92CF92DF92EF92FF92C4
:102450008824992454011FC081E062E3A5019401FE
:102460000E9416170894811C911CA11CB11C8C148D
:102470009D04AE04BF0481F7882499245401689414
:1024800084F8840C951CA61CB71C80EF8816910458
:10249000A104B104B9F1240135010F2EFFE0CF2EC4
:1024A000F0E0DF2EF0E0EF2EF0E0FF2EF02DC80C74
:1024B000D91CEA1CFB1CD0CF81E062E3A50194018A
:1024C0000E94161780E091E0A0E0B0E0880E991E0F
:1024D000AA1EBB1E8C149D04AE04BF0469F7882499
:1024E00099245401689494F8840C951CA61CB71C7C
:1024F00090E0891690EF990690E0A90690E0B90661
:1025000021F43AC0882499245401240135010F2E66
:10251000F0E0CF2EFFE0DF2EF0E0EF2EF0E0FF2E18
:10252000F02DC80CD91CEA1CFB1CC6CF81E062E36D
:10253000A50194010E94161780E090E0A1E0B0E0B0
:10254000880E991EAA1EBB1E8C149D04AE04BF04E7
:1025500069F78824992454016894A4F8840C951C84
:10256000A61CB71C90E0891690E0990690EFA9068A
:1025700090E0B90621F414C0882499245401240160
:1025800035010F2EF0E0CF2EF0E0DF2EFFE0EF2E32
:10259000F0E0FF2EF02DC80CD91CEA1CFB1CC6CFA6
:1025A000FF90EF90DF90CF90BF90AF909F908F9073
:1025B0007F906F905F904F90089533990EC0109266
:1025C00018030E940D068FEF91EEA4E08150904019
:1025D000A040E1F700C00000089534990FC080E8E2
:1025E000809318030E940D068FEF91EEA4E08150B6
:1025F0009040A040E1F700C00000089535990FC059
:1026000080E2809318030E940D068FEF91EEA4E004
:1026100081509040A040E1F700C00000089530993B
:102620000FC080E3809318030E940D068FEF91EE98
:10263000A4E081509040A040E1F700C00000089560
:1026400031990FC080E4809318030E940D068FEF2C
:1026500091EEA4E081509040A040E1F700C000005E
:10266000089532990EC080E5809318030E940D06EC
:102670008FEF91EEA4E081509040A040E1F700C0C0
:1026800000000895CF92DF92EF92FF920F931F9375
:10269000CF93DF93E8E1F3E0C0EED3E008E110E090
:1026A000CC24DD2476016894E7F845C080819181CF
:1026B000A281B38184239523A623B7230097A10584
:1026C000B105B9F45D9A00000000000000005D98BB
:1026D00000000000000000000000000000000000FA
:1026E00000000000000000000000000000000000EA
:1026F00016C05D9A0000000000000000000000000D
:10270000000000000000000000005D9800000000D4
:1027100000000000000000000000000000007595AF
:102720006795579547952150304009F0BFCF3496B3
:10273000EC17FD0721F09801B701A601B7CF87E19B
:1027400091E00197F1F700C00000DF91CF911F9158
:102750000F91FF90EF90DF90CF900895CF92DF928E
:10276000EF92FF920F931F93CF93DF93E8E1F3E093
:10277000C0EED3E008E110E0CC24DD2476016894BB
:10278000E7F845C080819181A281B381842395239C
:10279000A623B7230097A105B105B9F45D9A0000FF
:1027A0000000000000005D98000000000000000034
:1027B0000000000000000000000000000000000019
:1027C000000000000000000016C05D9A000000003C
:1027D00000000000000000000000000000000000F9
:1027E00000005D98000000000000000000000000F4
:1027F000000000000000759567955795479521509A
:10280000304009F0BFCF3496EC17FD0721F0980156
:10281000B701A601B7CF87E191E00197F1F700C0BA
:102820000000DF91CF911F910F91FF90EF90DF900B
:10283000CF900895CF93DF93962FBA01A901282F47
:1028400030E0D901A90FB11D2A173B07ACF4C8E14C
:10285000D3E021503040F901EE0FFF1FEE0FFF1FB4
:10286000EC0FFD1F40835183628373838F5F282F9A
:1028700030E02A173B076CF30E94AE13DF91CF9133
:102880000895CF93DF93962FBA01A901282F30E046
:10289000D901A90FB11D2A173B07ACF4C8E1D3E059
:1028A00021503040F901EE0FFF1FEE0FFF1FEC0F1C
:1028B000FD1F40835183628373838F5F282F30E035
:1028C0002A173B076CF3DF91CF910895CF92DF92E7
:1028D000EF92FF920F9369017A01482F50E09A011D
:1028E000260F311D421753075CF568E173E0053090
:1028F00081F440FD1FC041505040FA01EE0FFF1F10
:10290000EE0FFF1FE60FF71FC082D182E282F38233
:1029100011C0013079F440FF0DC041505040FA0120
:10292000EE0FFF1FEE0FFF1FE60FF71FC082D182D1
:10293000E282F3828F5F482F50E042175307BCF2C8
:102940000F91FF90EF90DF90CF9008950F9301309B
:1029500019F40E94661402C00E9441140E9442139E
:102960000F910895CF92DF92EF92FF920F936A0139
:102970007B01022F81309105D1F481E0213009F0F3
:1029800080E0882331F481E0053009F080E088237D
:1029900039F081E066E0A70196010E94661497C0B5
:1029A00081E066E0A70196010E94411490C0823048
:1029B0009105D1F481E0213009F080E0882331F4E1
:1029C00081E0053009F080E0882339F087E065E098
:1029D000A70196010E9466147AC087E065E0A7010E
:1029E00096010E94411473C083309105D1F481E0B7
:1029F000213009F080E0882331F481E0053009F0CE
:102A000080E0882339F08CE065E0A70196010E9400
:102A100066145DC08CE065E0A70196010E94411438
:102A200056C084309105D1F481E0213009F080E076
:102A3000882331F481E0053009F080E0882339F003
:102A400081E169E0A70196010E94661440C081E11E
:102A500069E0A70196010E94411439C085309105B3
:102A6000D1F481E0213009F080E0882331F481E065
:102A7000053009F080E0882339F087E06AE0A7019B
:102A800096010E94661423C087E06AE0A7019601C0
:102A90000E9441141CC086309105C9F481E02130A8
:102AA00009F080E0882331F481E0053009F080E00E
:102AB000882339F081E069E1A70196010E9466143C
:102AC00006C081E069E1A70196010E9441140F91BF
:102AD000FF90EF90DF90CF9008950E94B2140E9473
:102AE00042130895DF92EF92FF920F931F93CF93BB
:102AF000DF93CDB7DEB7C058D0400FB6F894DEBF35
:102B00000FBECDBFDE011196E7E9F2E090E801903B
:102B10000D929150E1F7813069F0823071F083308D
:102B200079F0843081F0853089F08630B9F511E094
:102B300089E10EC011E086E00BC017E085E008C017
:102B40001CE085E005C011E189E002C017E08AE0E1
:102B5000E82EFF24E10EF11C062F0F5FDD2400326A
:102B600010F4E02F01C0ED2DF0E0EE0FFF1FEE0F8F
:102B7000FF1F81E090E08C0F9D1FE80FF91F20815F
:102B8000318142815381812F61E00E9441141F5F96
:102B90000F5F812F90E08E159F050CF3C058DF4F1B
:102BA0000FB6F894DEBF0FBECDBFDF91CF911F915E
:102BB0000F91FF90EF90DF9008952F923F924F92E8
:102BC0005F926F927F928F929F92AF92BF92CF92BD
:102BD000DF92EF92FF920F931F93CF93DF9300D07A
:102BE00000D000D0CDB7DEB7D42E5801662309F44B
:102BF00061E0813049F0823051F0833059F0843007
:102C000061F010E070E00BC011E076E008C017E062
:102C100075E005C01CE075E002C011E179E0862E88
:102C200099240894811C911C22E0821691040CF4D2
:102C3000DBC001E0212F30E0C9010197880F991F07
:102C4000880F991F48E153E0480F591F5A83498361
:102C5000A901470F511DCA010397880F991F880FBB
:102C6000991F0F2EF8E12F2EF3E03F2EF02D280EA6
:102C7000391EC72EC10EC901880F991F880F991FD1
:102C8000A8E1B3E0A80FB91FBE83AD830F2EFCEF00
:102C9000EF2EFFEFFF2EF02DE40EF51EC701880F7B
:102CA000991F880F991FE8E1F3E0E80FF91FFC83F3
:102CB000EB83F1E0DF16F1F5D1014D905D906D9061
:102CC0007C90E981FA8180819181A281B381F101B7
:102CD00080839183A283B383212F215030E02E156E
:102CE0003F050CF5E12FC9010196880F991F880F48
:102CF000991F885E9C4FDC014D915D916D917C9197
:102D0000C901880F991F880F991F885E9C4FDC01AD
:102D10004D935D936D937C9313972E2F30E0EF5F6F
:102D20002E153F0504F3EB81FC81408251826282C3
:102D300073823EC0F2E0DF16D9F5A981BA814D90C9
:102D40005D906D907C90F10180819181A281B38131
:102D5000E981FA8180839183A283B3832C2D235050
:102D60001217F8F4E22FF0E0CF010197880F991FB6
:102D7000880F991F885E9C4FDC014D915D916D918C
:102D80007C911397CF01880F991F880F991F885E38
:102D90009C4FFC014083518362837383215012173F
:102DA00008F3AD81BE814D925D926D927C92139736
:102DB0000E944213A114B10481F0C501019769F08A
:102DC00020E030E0EFE9FFE03197F1F700C00000CC
:102DD0002F5F3F4F28173907A8F30F5F802F90E030
:102DE000881599050CF465CF26960FB6F894DEBFCA
:102DF0000FBECDBFDF91CF911F910F91FF90EF904C
:102E0000DF90CF90BF90AF909F908F907F906F900A
:102E10005F904F903F902F9008950F931F930E94C3
:102E2000DD150E9442131F910F910895CF92DF92FA
:102E3000EF92FF920F931F93CF93DF93082F6901B7
:102E40007A0190E0EC01C60FD11D8C179D077CF430
:102E5000102F802F612FA70196010E9441140E941C
:102E600042131F5F812F90E08C179D0794F3DF9131
:102E7000CF911F910F91FF90EF90DF90CF90089529
:102E8000AF92BF92CF92DF92EF92FF920F931F9378
:102E9000CF93DF93182FE62EA82EBB246501C60E14
:102EA000D11CAC14BD04CCF4C82F8C2F61E02FEFE3
:102EB0003FE54FEB50E002E00E94A6148FEF96E151
:102EC000A1E181509040A040E1F700C00000CF5F39
:102ED0008C2F90E08C159D0544F3D12FD150DE0D41
:102EE00075010894E108F1088D2F90E0E816F906C5
:102EF0000CF04BC0CD2F8C2F61E020E030E04FEF85
:102F000050E002E00E94A6148FEF96E1A1E181500B
:102F10009040A040E1F700C00000C1508C2F90E02D
:102F2000E816F90644F3CD2F8C2F61E020E03FEF47
:102F300040E050E002E00E94A6148FEF96E1A1E18C
:102F400081509040A040E1F700C00000C1508C2F9C
:102F500090E0E816F90644F3CD2F8C2F61E02FEFB7
:102F600030E040E050E002E00E94A6148FEF96E1CE
:102F7000A1E181509040A040E1F700C00000C150A5
:102F80008C2F90E0E816F90644F3AC14BD048CF5E0
:102F9000C12F8C2F61E02FEF3FEF4FEF50E002E0A9
:102FA0000E94A6148FEF96E1A1E181509040A040CD
:102FB000E1F700C00000CF5F8C2F90E08C159D05DD
:102FC00044F3C12F8C2F61E020E030E0A90102E042
:102FD0000E94A6148FEF96E1A1E181509040A0409D
:102FE000E1F700C00000CF5F8C2F90E08C159D05AD
:102FF0004CF3DF91CF911F910F91FF90EF90DF90F5
:0C300000CF90BF90AF900895F894FFCFE0
:10300C0000000C038C03CC03EC037C033C031C037B
:10301C000C030C030C03000000000C031C0338030E
:10302C007003E003E003700338031C030C0300007F
:10303C000000F801FC030C030C030C030C030C0341
:10304C000C03FC03F80100000000FC01FC0300036E
:10305C000003F803FC030C030C03FC03F801000051
:10306C000000FC03FC0300030003F803FC030C004A
:10307C000C00FC03F8030000000038007800F80096
:10308C00D80198031803FC03FC0318001800000077
:10309C000000F801FC030C030C00780078000C0015
:1030AC000C03FC03F80100000000F801FC030C0306
:1030BC001C0038007000E000C001FC03FC030000A1
:1030CC0000006000E000E001600060006000600053
:1030DC006000F801F801000000FF00FF0000FFFF96
:1030EC00FF7B000000F0006600017B006C00F0002C
:1030FC00D100017B00D700F000400101000000006E
:10310C00750066000100006C007500D10001000024
:10311C00D70075004001010021FF000042FF0000B4
:10312C0063FF000084FF0000A5FF0000C6FF000045
:10313C00E7FF0000FFFF0000FFDE0000FFBD000006
:10314C00FF9C0000FF7B0000FF5A0000FF390000CD
:10315C00FF180000FF000021FF000042FF00006389
:10316C00FF000084FF0000A5FF0000C6FF0000E781
:10317C00FF0000FFFF0000FFE70000FFC60000FF9C
:10318C00A50000FF840000FF630000FF420000FF69
:10319C00210000FF0000000021FF000042FF0000A2
:1031AC0063FF000084FF0000A5FF0000C6FF0000C5
:1031BC00E7FF0000FFFF0000FFDE0000FFBD000086
:1031CC00FF9C0000FF7B0000FF5A0000FF3900004D
:1031DC00FF180000FF000021FF000042FF00006309
:1031EC00FF000084FF0000A5FF0000C6FF0000E701
:1031FC00FF0000FFFF0000FFE70000FFC60000FF1C
:10320C00A50000FF840000FF630000FF420000FFE8
:08321C00210000FF000000008A
:00000001FF
